:020000041A00E0
:10000000008000109515001A7901001A7B01001A72
:100010007D01001A7F01001A8101001AFA62FF5364
:100020000000000000000000000000008301001A32
:100030008501001A000000008701001A4125001AFE
:10004000BB01001ABB01001ABB01001A000000002E
:10005000BB01001ABB01001ABB01001ABB01001A48
:100060007128001ABB01001ABB01001ABB01001A5B
:10007000BB01001ABB01001ABB01001ABB01001A28
:10008000BB01001ABB01001ABB01001ABB01001A18
:10009000BB01001ABB01001ABB01001ABB01001A08
:1000A000BB01001ABB01001ABB01001ABB01001AF8
:1000B000BB01001ABB01001ABB01001ABB01001AE8
:1000C000BB01001ABB01001ABB01001ABB01001AD8
:1000D000BB01001ABB01001ABB01001ABB01001AC8
:1000E000BB01001ABB01001ABB01001ABB01001AB8
:1000F00000000000BB01001ABB01001ABB01001A7E
:1001000000000000BB01001ABB01001ABB01001A6D
:10011000BB01001A6430001A00000010400C0000FF
:100120006430001A00000810000000006430001A5B
:1001300000000020000000006430001A0080002051
:10014000000000006430001A00C000200000000021
:10015000400C0010B8000000000008100000000073
:1001600000000020000000000080002000000000CF
:1001700000C0002000000000FEE7FEE7FEE7FEE70B
:10018000FEE7FEE7FEE7FEE7FEE7002393420AD222
:1001900010B450F8044B41F8044B04339342F8D3A5
:1001A0005DF8044B7047704700238B4204D2002255
:1001B00040F8042B0433F8E77047FEE7FFFFFFFF2A
:1001C000FFFFFFFFFFFFFFFFFFFFFFFFFFFFFFFF3F
:1001D000FFFFFFFFFFFFFFFFFFFFFFFFFFFFFFFF2F
:1001E000FFFFFFFFFFFFFFFFFFFFFFFFFFFFFFFF1F
:1001F000FFFFFFFFFFFFFFFFFFFFFFFFFFFFFFFF0F
:10020000FFFFFFFFFFFFFFFFFFFFFFFFFFFFFFFFFE
:10021000FFFFFFFFFFFFFFFFFFFFFFFFFFFFFFFFEE
:10022000FFFFFFFFFFFFFFFFFFFFFFFFFFFFFFFFDE
:10023000FFFFFFFFFFFFFFFFFFFFFFFFFFFFFFFFCE
:10024000FFFFFFFFFFFFFFFFFFFFFFFFFFFFFFFFBE
:10025000FFFFFFFFFFFFFFFFFFFFFFFFFFFFFFFFAE
:10026000FFFFFFFFFFFFFFFFFFFFFFFFFFFFFFFF9E
:10027000FFFFFFFFFFFFFFFFFFFFFFFFFFFFFFFF8E
:10028000FFFFFFFFFFFFFFFFFFFFFFFFFFFFFFFF7E
:10029000FFFFFFFFFFFFFFFFFFFFFFFFFFFFFFFF6E
:1002A000FFFFFFFFFFFFFFFFFFFFFFFFFFFFFFFF5E
:1002B000FFFFFFFFFFFFFFFFFFFFFFFFFFFFFFFF4E
:1002C000FFFFFFFFFFFFFFFFFFFFFFFFFFFFFFFF3E
:1002D000FFFFFFFFFFFFFFFFFFFFFFFFFFFFFFFF2E
:1002E000FFFFFFFFFFFFFFFFFFFFFFFFFFFFFFFF1E
:1002F000FFFFFFFFFFFFFFFFFFFFFFFFFFFFFFFF0E
:1003000070B5DEB00446244D7C26324629463FA80F
:1003100002F0B8FC3246A91920A802F0B3FC01ABE8
:1003200010221A605A609A600821D96019615A61D6
:1003300099611A480568DD611A62194800685862B7
:100340009862DA621A635A639963DA63154E366803
:100350001E645A649964D9641A655A659A65D965A8
:100360000021196658669D66DA661A675A679867AB
:100370005EAA02EB840252F87C0C0B49086052F82A
:10038000F81C0A4A116053F82420094B1A60094BE3
:100390001C605EB070BD00BFB02C001AF00B0010E6
:1003A000F40B0010EC0B0010E40C00106C0C0010AF
:1003B0008C0C0010840C001070B504460D46002112
:1003C000844B93F9000002F01DFA0021824B93F94F
:1003D000000002F017FA0021804B93F9000002F0B0
:1003E00011FA00217E4B93F9000002F00BFA002174
:1003F0007C4B93F9000002F005FA00217A4B93F947
:10040000000002F0FFF90021784B93F9000002F0A0
:10041000F9F90021764B93F9000002F0F3F900217D
:10042000744B93F9000002F0EDF90021724B93F93F
:10043000000002F0E7F90021704B93F9000002F090
:10044000E1F900216E4B93F9000002F0DBF9002185
:100450006C4B93F9000002F0D5F900216A4B93F937
:10046000000002F0CFF90021684B93F9000002F080
:10047000C9F90021664B93F9000002F0C3F915F0A9
:10048000400F36D114F0020F3AD114F004063ED1D9
:1004900014F0010F42D115F0010F46D115F0020FF3
:1004A0004AD115F0040F4ED115F0080F52D115F0B6
:1004B000100F56D115F0200F5AD115F0800F5ED1D4
:1004C00014F0080562D114F0100F66D114F0200F5B
:1004D0006AD1002E6FD1002D74D14E4C012194F9B8
:1004E000000002F08FF9002194F9000002F08AF96F
:1004F00070BD0121374B93F9000002F083F9C1E789
:100500000121354B93F9000002F07CF9BDE7012190
:10051000324B93F9000002F075F9B9E70121304B35
:1005200093F9000002F06EF9B5E701212D4B93F924
:10053000000002F067F9B1E701212B4B93F90000AD
:1005400002F060F9ADE70121284B93F9000002F0B9
:1005500059F9A9E70121264B93F9000002F052F95D
:10056000A5E70121234B93F9000002F04BF9A1E725
:100570000121214B93F9000002F044F99DE701218C
:100580001E4B93F9000002F03DF999E701211C4B45
:1005900093F9000002F036F995E70121194B93F920
:1005A000000002F02FF991E70121174B93F90000A9
:1005B00002F028F98DE70121144B93F9000002F0B5
:1005C00021F988E70121124B93F9000002F01AF992
:1005D00083E700BFE80C0010700C0010A00C0010A6
:1005E000B50C00107D0C0010DC0C0010AF0C0010DE
:1005F000600C0010CD0C0010AE0C0010DF0C0010D1
:10060000880C0010A20C0010D50C0010D40C0010A7
:10061000D60C0010690C001010B504460121064BE1
:1006200093F9000002F0EEF8044B1A7821460020FE
:10063000FFF7C2FE10BD00BFE00C00108C0C0010D4
:1006400010B504460021064B93F9000002F0DAF8D9
:10065000044B1A7821460020FFF7AEFE10BD00BF04
:10066000E00C00108C0C001038B504460D4601213A
:10067000054B93F9000002F0C5F8044B1A7829469F
:100680002046FFF799FE38BDE00C00108C0C0010DE
:10069000F8B504460D4616460021E04B93F90000DC
:1006A00002F0B0F80021DE4B93F9000002F0AAF846
:1006B0000021DC4B93F9000002F0A4F80021DA4B92
:1006C00093F9000002F09EF80021D84B93F9000046
:1006D00002F098F80021D64B93F9000002F092F84E
:1006E0000021D44B93F9000002F08CF80021D24B8A
:1006F00093F9000002F086F80021D04B93F9000036
:1007000002F080F80021CE4B93F9000002F07AF855
:100710000021CC4B93F9000002F074F80021CA4B81
:1007200093F9000002F06EF80021C84B93F9000025
:1007300002F068F80021C64B93F9000002F062F85D
:100740000021C44B93F9000002F05CF80021C24B79
:1007500093F9000002F056F815F0400F40F0E680E3
:1007600014F0020F40F0E98014F0040740F0EC8030
:1007700014F0010F40F0EF8015F0010F40F0F2800F
:1007800015F0020F40F0F58015F0040F40F0F880EE
:1007900015F0080F40F0FB8015F0100F40F0FE80C0
:1007A00015F0200F40F0018115F0800F40F004811A
:1007B00014F0080540F0078114F0100F40F00A8192
:1007C00014F0200F40F00D81002F40F01181002D1A
:1007D00040F015813746002EC0F218813F110025E8
:1007E000BD4280F216819D4C002194F9000002F078
:1007F00009F8012194F9000002F004F8002194F9AD
:10080000000001F0FFFF012194F9000001F0FAFF60
:10081000002194F9000001F0F5FF012194F9000096
:1008200001F0F0FF002194F9000001F0EBFF01213D
:1008300094F9000001F0E6FF002194F9000001F0B6
:10084000E1FF012194F9000001F0DCFF002194F99F
:10085000000001F0D7FF012194F9000001F0D2FF60
:10086000002194F9000001F0CDFF012194F900006E
:1008700001F0C8FF002194F9000001F0C3FF01213D
:1008800094F9000001F0BEFF002194F9000001F08E
:10089000B9FF012194F9000001F0B4FF002194F99F
:1008A000000001F0AFFF012194F9000001F0AAFF60
:1008B000002194F9000001F0A5FF012194F9000046
:1008C00001F0A0FF002194F9000001F09BFF01213D
:1008D00094F9000001F096FF002194F9000001F066
:1008E00091FF012194F9000001F08CFF002194F99F
:1008F000000001F087FF012194F9000001F082FF60
:10090000002194F9000001F07DFF012194F900001D
:1009100001F078FF002194F9000001F073FF01213C
:1009200094F9000001F06EFF013559E701213B4BBE
:1009300093F9000001F066FF12E70121384B93F9AB
:10094000000001F05FFF0FE70121364B93F9000033
:1009500001F058FF0CE70121334B93F9000001F03F
:1009600051FF09E70121314B93F9000001F04AFFE3
:1009700006E701212E4B93F9000001F043FF03E746
:1009800001212C4B93F9000001F03CFF00E701210D
:10099000294B93F9000001F035FFFDE60121274BBB
:1009A00093F9000001F02EFFFAE60121244B93F9A0
:1009B000000001F027FFF7E60121224B93F9000028
:1009C00001F020FFF4E601211F4B93F9000001F034
:1009D00019FFF1E601211D4B93F9000001F012FF10
:1009E000EEE601211A4B93F9000001F00BFFEBE654
:1009F0000121184B93F9000001F004FFE7E6012103
:100A0000154B93F9000001F0FDFEE3E606F10F0738
:100A1000E4E616F00F0F39D1F8BD00BFE80C001066
:100A2000700C0010A00C0010B50C00107D0C001014
:100A3000DC0C0010AF0C0010600C0010CD0C00108E
:100A4000AE0C0010DF0C0010880C0010A20C00107F
:100A5000D50C0010D40C0010D60C0010690C00103E
:100A60000B4D002195F9000001F0CCFE012195F914
:100A7000000001F0C7FE0134724206F00F0302F0DD
:100A80000F0258BF5342A342EADAC5E70024F3E756
:100A9000690C0010F8B505460F4614461E461A4B61
:100AA0001A781A4B1B789A4225D02A20FFF7C8FDE6
:100AB000C7F30720FFF7B0FDF8B2FFF7ADFDC6F3AF
:100AC0000720FFF7A9FDF0B2FFF7A6FD2B20FFF7E7
:100AD000B7FDC5F30720FFF79FFDE8B2FFF79CFDC8
:100AE000C4F30720FFF798FDE0B2FFF795FD2C2037
:100AF000FFF7A6FDF8BD064B1B681A1B34461E1AED
:100B00000D461746D1E700BFF80B0010E80B0010A8
:100B10006C0C001008B50C4B1A780C4B1B789A42E1
:100B200008D00B4B1B680B4A126800210846FFF7E0
:100B3000B1FF08BD074B1B68054A12680021084633
:100B4000FFF7A8FFF5E700BFF80B0010400C0010FE
:100B5000E40C00106C0C001010B50021254B93F92B
:100B6000000001F04FFEFFF7D5FF234B1B68012B60
:100B700005D1214B1B68102B08D0002420E0012157
:100B80001E4B93F9000001F03DFEF2E71C4B1B6881
:100B90001C4A1268013203FB022200210846FFF7BB
:100BA00077FD0121134B93F9000001F02BFEFFF7B5
:100BB000B1FF10BDD2B200210846FFF7FDFB0134A2
:100BC0000F4B1A680F4B1B68013302FB0333A34220
:100BD000E7DD094B1A68012AECD1D2B200210120CD
:100BE000FFF7EAFB044B1A7800210120FFF7E4FB32
:100BF000E5E700BFE10C00108C0C0010E00C0010C9
:100C0000E40C00106C0C0010054B186002781A718F
:100C100042785A7182789A71C278DA71704700BF4F
:100C2000C00C001008B5E220FFF70AFD2320FFF7F3
:100C3000F3FC0220FFF7F0FC0420FFF7EDFCE020BE
:100C4000FFF7FEFC0120FFF7E7FC0120002101F087
:100C500057FEE020FFF7F4FC0320FFF7DDFC012046
:100C6000002101F04DFE0120FFF7EAFC05200021E4
:100C700001F046FEE620FFF7E3FC0420FFF7CCFC82
:100C80009320FFF7C9FCE020FFF7C6FCB020FFF778
:100C9000D7FC0020FFF7C0FC0020FFF7BDFC0320BD
:100CA000FFF7BAFC1F20FFF7B7FC0120FFF7B4FCE9
:100CB000DF20FFF7B1FC0020FFF7AEFCB420FFF708
:100CC000BFFC0320FFF7A8FCA020FFF7A5FC002035
:100CD000FFF7A2FC2E20FFF79FFC3020FFF79CFCC3
:100CE0000020FFF799FC0F20FFF796FC0020FFF78C
:100CF00093FCB620FFF7A4FC0220FFF78DFC0D202B
:100D0000FFF78AFC0020FFF787FC1020FFF784FC28
:100D10001020FFF781FC0020FFF77EFC0820FFF782
:100D20007BFCBA20FFF78CFC0520FFF775FCB82090
:100D3000FFF786FC0720FFF76FFC0120FFF76CFC34
:100D40003620FFF77DFC2220FFF766FCF020FFF73E
:100D500077FC0320FFF760FC0120002101F0D0FDAB
:100D600040F2DF1340F21F3200210846FFF792FEE7
:100D70002920FFF765FCBE20FFF762FC0620FFF785
:100D80004BFCF020FFF748FC0120FFF745FCF0206A
:100D9000FFF742FC0020FFF73FFC0020FFF73CFC80
:100DA000D020FFF74DFC0D20FFF736FC2C20FFF77D
:100DB00047FC08BD00F0F80040B240EA5110054B76
:100DC0001870C90021F01F0149B241EAD202024B5A
:100DD0001A707047610C0010680C00100212024B70
:100DE0001A70024B18707047610C0010680C0010EC
:100DF00000F0F80040B240EA5110074B1870C900EB
:100E000021F01F0149B241EAD202044B1A70044B8F
:100E100000221A70704700BFAC0C0010A10C00102B
:100E2000AD0C001010B51D4B18701D4C012194F92C
:100E3000000001F0E7FC0120002101F061FD00212C
:100E400094F9000001F0DEFC0120002101F058FDC2
:100E5000012194F9000001F0D5FC0120002101F0EE
:100E60004FFD104C002194F9000001F0CBFCFFF77E
:100E7000D9FE012194F9000001F0C4FCFF221146C3
:100E80001046FFF797FF002211461046FFF7B0FF0C
:100E90000023054A1360054A137010BDF80B0010BB
:100EA000E90C0010E10C0010C00C0010AD0C00109B
:100EB00070B504460E46151E18DB0021144B93F93D
:100EC000000001F09FFC3346621931462046FFF7CF
:100ED000E1FD104B1B68102B0BD001210C4B93F93B
:100EE000000001F08FFCFFF715FE70BD2C446D4231
:100EF000E3E70121084B93F9000001F083FC2A4647
:100F0000064B1978064B1878FFF7C2FBE5E700BFE0
:100F1000E10C00108C0C0010E00C0010680C0010AC
:100F2000610C001070B506460C46151E18DB00213A
:100F3000144B93F9000001F065FC63193246214619
:100F40003046FFF7A7FD104B1B68102B0BD001217B
:100F50000C4B93F9000001F055FCFFF7DBFD70BD71
:100F60002C446D42E3E70121084B93F9000001F0A6
:100F700049FC2A46064B1978064B1878FFF788FB80
:100F8000E5E700BFE10C00108C0C0010E00C001035
:100F9000680C0010610C00102DE9F84F05460C4656
:100FA0009146994233D01E46824237D0824239DD83
:100FB000171AA94538DD4FF0010AB44237DAA6EB1B
:100FC0000408B44236DA4FF0010B0021264B93F9A6
:100FD000000001F017FC47452FD24FEA5809C9F12C
:100FE000000923462A4621462846FFF753FD1F4B9A
:100FF00019781F4B1878FFF737FBB4420CD05C44CC
:1010000019EB0709EDD45544A9EB0809E9E7121AD1
:10101000FFF74EFFFFF77EFDBDE8F88F5A1AFFF786
:1010200081FFF7E7871AC4E74FF0FF3AC5E7A4EB63
:101030000608C6E74FF0FF3BC7E77E087642234627
:101040002A4621462846FFF725FD084B1978084B0C
:101050001878FFF709FB4D45DED0554416EB08061E
:10106000EDD45C44F61BEAE7E10C0010680C0010BC
:10107000610C001008B5C1B2C0F30720FFF7F4FA05
:1010800008BDFFFF70B505460E460E4C002194F9D1
:10109000000001F0B7FB33462A4631462846FFF7E9
:1010A000F9FC094B1878094B1B7843EA0020FFF73D
:1010B000E1FF012194F9000001F0A4FBFFF72AFDF4
:1010C00070BD00BFE10C0010610C0010680C001036
:1010D0002DE9F0470446884691460021754B93F967
:1010E000000001F08FFB744B1B78002B40F09680C2
:1010F000724B1A78724B1B789A420DD0714A9779CD
:10110000E41B1379DB08577907FB03F707FB04F7A8
:1011100004374FF0000A6AE06A4D2A7942446B793D
:101120004B44013B013A49464046FFF7B3FCAE79D8
:10113000A41B2B79DB086E7906FB03F606FB04F68D
:10114000043600271DE0604B1878604B1B7843EA9B
:101150000020FFF78FFF0134E4B2072C0FD8C4F151
:10116000070345FA03F313F0010FECD0584B18783E
:10117000584B1B7843EA0020FFF77CFFEBE7013672
:10118000013750490B79DA084B7903FB02F3BB4274
:1011900040F386804B4B1B689D5D0024DDE74A4B86
:1011A00018784A4B1B7843EA0020FFF763FF0134AD
:1011B000E4B2072C0DD845FA04F313F0010FEED07A
:1011C000434B1878434B1B7843EA0020FFF752FF4C
:1011D000EDE7013E002E05DB3A4B1A68BB19D55CE2
:1011E0000024E6E7374B1B79DB081F449A44354956
:1011F0000A79D308497901FB03F1514550DD9AFB87
:10120000F3F303EB090142440B46013A4046FFF772
:1012100041FC2C4B1E79F608013EDBE7294A937905
:10122000E41A1379DB0892F805A00AFB03FA0AFB1B
:1012300004F404F1040A00272CE004EB080000EB9E
:10124000C60007EB09014B1C421CFFF723FC204B97
:101250001878204B1B7843EA0020FFF70BFF01347E
:10126000E4B2072C07D8C4F1070345FA03F313F0DF
:10127000010FF4D0E1E70136124B1B79DB08B342D2
:1012800006DD104B1A680AEB0603D55C0024E8E77C
:101290009A4401370B4B5B79BB4201DD0026EBE73B
:1012A0000121044B93F9000001F0ACFAFFF732FC86
:1012B000BDE8F087E10C0010AD0C0010F80B001039
:1012C000400C0010C00C0010AC0C0010A10C001061
:1012D000610C0010680C001000B583B001F0D6FA64
:1012E00000F06CF829230093282327222621304878
:1012F0000068FFF705F82F4B1878FFF793FD2E488D
:10130000FFF782FCFFF728FC4FF47A70002101F010
:10131000F7FA4FF48060FFF761FDC82264210846A8
:10132000FFF700FE4FF4FA70002101F0E9FA4FF4E4
:10133000C87264210846FFF7BBFD4FF4FA70002124
:1013400001F0DEFA4FF6FF70FFF748FDC8234FF4B7
:10135000C87219461846FFF71FFE4FF4FA700021B5
:1013600001F0CEFA4FF47840FFF738FD4FF4EB71FF
:101370004FF4BE70FFF786FE4FF4FA70002101F0C3
:10138000BFFA0D48FFF740FC4FF4AF724FF496716F
:101390006120FFF79DFE4FF4FA70002101F0B0FAD2
:1013A000FFF7DAFB4FF4FA70002101F0A9FAB0E779
:1013B000E40B0010E80B0010000000102DE9F84FBE
:1013C0004FF46131032001F02DF84FF46131052015
:1013D00001F028F8002001F0C9F82020584B1870BF
:1013E000DFF89CB10F238BF80030DFF898A11F23A2
:1013F0008AF80030DFF890910E2389F80030DFF88A
:101400008C811E2388F800300D234E4A13701D2353
:101410004D490B700C234D4C23700B234C4D2B70FE
:1014200021234C4E337010234B4F3B7011234B49FB
:101430000B7012234A4C237014234A4D2B70132334
:10144000494E33700223494F3B70494F03233B7091
:10145000484E04233370484D05232B70474C062318
:101460002370012101F0F8F801219BF9000001F03F
:10147000F3F801219AF9000001F0EEF8012199F941
:10148000000001F0E9F8012198F9000001F0E4F80A
:1014900001212C4A92F9000001F0DEF801212A4BCB
:1014A00093F9000001F0D8F80121284B93F90000CE
:1014B00001F0D2F80121264B93F9000001F0CCF89D
:1014C0000121244B93F9000001F0C6F80121224BC1
:1014D00093F9000001F0C0F80121204B93F90000BE
:1014E00001F0BAF801211E4B93F9000001F0B4F8A5
:1014F00001211C4B93F9000001F0AEF801211A4BB9
:1015000093F9000001F0A8F80121184B93F90000AD
:1015100001F0A2F8012197F9000001F09DF80121E6
:1015200096F9000001F098F8012195F9000001F00A
:1015300093F8012194F9000001F08EF8BDE8F88FCE
:101540007D0C0010AE0C0010E80C0010DF0C001039
:10155000B50C0010700C0010A00C0010880C0010CE
:10156000A20C0010D50C0010D40C0010D60C0010EA
:10157000E00C0010690C0010E10C0010E90C0010E8
:10158000DC0C0010AF0C0010600C0010CD0C001033
:101590007047FFFF10B572B6194B1A4A1A60043330
:1015A000194A1A60002305E0184A4FF0FF3142F84B
:1015B00023100133072BF7D962B6154B07E003F16F
:1015C0000C049A6859681868FEF7DFFD2346114A33
:1015D0009342F4D306E01C46596854F8080BFEF712
:1015E000E3FD23460C4A9342F5D300F0F1FE01F0EF
:1015F00025FBFFF7CDFFFFF76FFE30BFFDE700BF14
:10160000003105400010DF10FFF7DF0180E200E04D
:101610001401001A5001001A7801001A704770472F
:101620000022052A19D870B40C4911F8125001EBA8
:1016300042014C780A4B05F5006653F8261001204C
:10164000A040014343F8261003EB45130021195530
:101650000132052AE8D970BC70477047B42D001AD2
:1016600000400F400023032B16D830B40B4911F86B
:10167000132001EB43014D78094C02F5006254F848
:1016800022100120A84021EA000144F82210013371
:10169000032BEBD930BC7047704700BFAC2D001A4C
:1016A00000400F400023082B16D830B40B4911F826
:1016B000132001EB43014D78094C02F5006254F808
:1016C00022100120A84021EA000144F82210013331
:1016D000082BEBD930BC7047704700BFC02D001AF3
:1016E00000400F4010B582B0084C6946204600F01B
:1016F000FBF9074A6946204600F032FA00226946A3
:10170000204600F046FA02B010BD00BF00300E4087
:10171000801A060010B50B4C204600F03DFE6368B1
:1017200023F004036360236823F0FF0343F00703FF
:1017300023600549204600F010FE636843F0020371
:10174000636010BD00500C40A086010008B5002069
:1017500000F0A4F8044B40F60802C3F8842C0349B7
:10176000002000F0ADF808BD0060084040420F00C6
:1017700010B5074C204600F0D5F84FF4E131204673
:1017800000F01AF90323E3600123E36510BD00BFF5
:1017900000100C4008B5FFF7EBFF094800F010FD02
:1017A000FFF780FFFFF79EFFFFF7B4FFFFF7CEFFC5
:1017B000FFF736FFFFF756FF00F018FA08BD00BF2D
:1017C00000400F4008B5FFF7D3FF08BD00231C2BD6
:1017D00012D810B4094A02EB830112F823404A7868
:1017E000488802EB4412064941F8220001331C2BC1
:1017F000F0D95DF8044B7047704700BFDC2D001A2C
:101800000060084010B5174AD2F8203123F4704325
:1018100043F41043C2F82031D2F8243123F470434A
:1018200043F41043C2F8243101220F49062000F08E
:10183000C9FC00244CB10B4B5A6822F00C025A60D0
:101840005A6842F003025A6010BD084800EB840158
:1018500001238A78497810F8240000F0F3FB013462
:10186000E8E700BF0030044000CB280CD82D001A58
:1018700008B5FFF7ABFFFFF7C5FF08BD012909D188
:10188000C0EBC0008200044B13441A69137DDBB225
:10189000042BFBD0704700BFFC0B001070B5054651
:1018A000064EC400221A93003344988800F02EFCA0
:1018B000641BA300F3586C229A6170BDFC0B0010EE
:1018C0002DE9F0410C460B4EC5002B1A4FEA830858
:1018D00006EB0803988800F04DFCB0FBF4F056F8D6
:1018E000083042081A6156F808301A69801A58619F
:1018F000BDE8F081FC0B0010094B984209D003F5BC
:101900008053984207D0A3F58023984205D0002049
:10191000704702207047032070470120704700BFC6
:1019200000100C4030B583B00446FFF7E5FF0123FB
:101930001A4619460E4D35F8100000F0C9FB072372
:10194000A3600023E3656360E3602362E36463658F
:101950002365084B9C4206D00323E3601023A36257
:10196000019B03B030BD00232361A3690193F3E71A
:10197000582E001A0020084038B505460C46FFF7DF
:10198000BBFF0C4B33F8100000F0F4FB2301B0FB5D
:10199000F3F3D9B2EA6842F08002EA602960C3F347
:1019A00007226A60EA6822F08002EA60B0FBF3F086
:1019B000000938BD502E001A2DE9F04F83B0019078
:1019C0008846FFF799FF324B33F8100000F0D2FB46
:1019D00006464FF0FF3701244FF0000BA246D946D0
:1019E0002AE042424B1C17E00AB31746AB46A24618
:1019F00099460135AC421ED933093007A4FB0001DA
:101A000004FB0311621908FB02F2002300F094FFAB
:101A100002460B460028E4DB9742EAD3002BE8D0CD
:101A2000190CE6D1022BDFD8002DDDD0E1E71746F7
:101A3000AB46A246994601341FB10F2C01D80025B0
:101A4000D8E7B9F1000F1ED0019A1146D36843F0D0
:101A50008003D3605FFA89F31360C9F307235360EF
:101A6000D36823F08003D3604FEA0A13DBB20BF094
:101A70000F0213438B6233090AFB03F3DA4409FBB9
:101A80000AF9B3FBF9F9484603B0BDE8F08F00BF8F
:101A9000502E001A034B984201D0032070470420B7
:101AA000704700BF00400E4070B50D4614461E46FC
:101AB000FFF7F0FF00F05EFB55B104FB06F404EB0A
:101AC00040006400B0FBF4F0C0B20138C0B270BD99
:101AD00004EB840304EB4304F1E7036823F0E063C1
:101AE00043EA01610160704738B505460C46FFF7CF
:101AF000D1FF01231A46194600F0EAFA0021E960F5
:101B0000084A2260217161710B232846FFF7CCFF40
:101B1000000240F400132079400400F460201843D0
:101B2000286038BD801A060008B54FF48072C26084
:101B300000220260FFF7AEFF00F002FB08BD012AA1
:101B400006D0C36801228A4023EA0203C3607047BB
:101B500010B4C4688A401443C4605DF8044B7047F5
:101B600070B505460E46046824F46F2424F47064AE
:101B70000A600B79C3F10B03DBB24979FFF794FFDD
:101B800044EA002033795B0403F4602303432B60B1
:101B900070BD08B50A710A68FFF7E2FF08BD012AA7
:101BA0000AD0026822F0E0620260036801228A40E3
:101BB00023EA02030360704710B404688A401443A8
:101BC00004605DF8044B704738B504460D460021AB
:101BD000FFF783FF25B9236823F48033236038BDE2
:101BE000236843F480332360F9E7FFFF08B56920D9
:101BF00000F0C0FA014B186008BD00BFF00C0010E7
:101C0000F0B40B6813F0800F02D023F040030B6098
:101C1000074601253AE04B6903FB02F3B3FBF5F3FA
:101C20001CE01C46B0EB040C27D4674506D98D6038
:101C3000771CCF600A618C61CB6167460132B2F5D7
:101C4000807F1DDC0C6814F0400FE4D0731C02FA96
:101C500003FC4B6903FB0CF3B3FBF5F3DFF838C06F
:101C60006345EBD9DFF834C0634509D814F0800F21
:101C7000D7D1741C23FA04F4D4E7CCF1000CD4E7D8
:101C80000136032E01DC0122D9E70135042D01DCE8
:101C90000026F6E7F0BC7047FF5E4C0900D0121337
:101CA000F0B599B005460C465C22002101A800F071
:101CB000F7FF802300936369059323798DF804303F
:101CC00069462846FFF79CFF069BAB4227D0EB1ADC
:101CD0002ED41E46109B23F0400310936369159386
:101CE00023798DF8443010A92846FFF789FF169B09
:101CF000AB421FD0EB1A25D41F462B4B9D4223D954
:101D00000E9BED1A33D4AE423BDCBE4231DC6D4655
:101D10000FCD0FC495E80F0084E80F0006E06D4674
:101D20000FCD0FC495E80F0084E80F0019B0F0BD87
:101D30005B42CEE710AD0FCD0FC495E80F0084E8ED
:101D40000F00F3E75B42D7E74023089363690D93E5
:101D500008A92846FFF754FF0E9BAB42D0D108AD2F
:101D60000FCD0FC495E80F0084E80F00DEE76D4249
:101D7000C9E710AD0FCD0FC495E80F0084E80F0040
:101D8000D4E7AF4207DB08AD0FCD0FC495E80F00D5
:101D900084E80F00CAE710AD0FCD0FC495E80F001F
:101DA00084E80F00C2E700BF80778E0630B4054696
:101DB00000231C2000E001331C2818D103EB430250
:101DC00051000C4A0A441479844210D003EB4301B9
:101DD0004A0008498A5AAA42EDD803EB430251004F
:101DE000044A0A445288AA42E5D32046E4E730BCBC
:101DF000704700BF6C2E001A82B04FF47A730193C3
:101E00000D4A936923F0020192698A4201D00A4A7D
:101E1000916123F00303094A1168094A914201D9EB
:101E200043F00403044A9361019B5A1E0192002B64
:101E3000FAD102B0704700BF00000540D42D001A4F
:101E4000FF2C31011230054B53F8200010F0010F28
:101E500002D1C0F3046070471120704700000540B4
:101E600000F11202034B53F82220034B185C00EAE6
:101E70009200704700000540642E001A08B5102833
:101E80000AD8DFE800F0440B0D18210924272A2D79
:101E900009093034383C400000203AE01E4838E060
:101EA0001E4BD3F82C3103F00703042B01D01C4840
:101EB0002FE000202DE0194BD3F82C3103F007035D
:101EC000042B27D0164824E0164B186821E0164B47
:101ED00018681EE0154B18681BE0144B586818E092
:101EE00000F068F815E0002100F09AF811E00121F7
:101EF00000F096F80DE0022100F092F809E00321CD
:101F000000F08EF805E0042100F08AF801E04FF4BB
:101F1000004008BD0648FCE7001BB7000030044045
:101F200040787D01A82D001AD42D001A440C001011
:101F300080F0FA0238B505460C460879FFF79EFF97
:101F40006061194B2B44194A934221D818B380235E
:101F500023600023A360E360B5FBF0F32361144A20
:101F6000954203D903FB00F0A84207D0214628463A
:101F7000FFF796FEA3688BB1013BA360236983B191
:101F8000E2680AB1013AE260013B2361002038BDFA
:101F90004FF0FF30FBE74FF0FF30F8E74FF0FF3036
:101FA000F5E74FF0FF30F2E7103A6BFF1005940BA6
:101FB000FF5E4C0930B583B0174D6C6CC4F3036001
:101FC000FFF75CFF154B1B6801932B6C13F0010F9F
:101FD00020D0C4F30743C4F30132C4F30121C4F396
:101FE0008015013301320DF1080C614411F8041C15
:101FF00014F0800F08D13DB94900B3FBF1F3B0FBF9
:10200000F2F000FB03F003E0B0FBF2F003FB00F0A2
:1020100003B030BD0020FBE700000540602E001A31
:1020200038B50C460846FFF70DFF05462046FFF77A
:1020300017FF04462846FFF721FF0134B0FBF4F0F8
:1020400038BDFFFF30B400F11604A40004F1804451
:1020500004F5A02464681B2813D811291AD00E4D4A
:1020600025400AB145F400650BB145F0010545EA8C
:1020700001651630800000F1804000F5A020456029
:1020800008E044F001041630800000F1804000F5C3
:10209000A020446030BC7047FEF7FFE01B280CD83E
:1020A0001630800000F1804000F5A020406810F05C
:1020B000010F04D1C0F30460704711207047112054
:1020C000704708B5FFF7EAFFFFF7D8FE08BDFFFF2E
:1020D00071B901210AB141F00401022B0AD0B0F517
:1020E000A17F0AD3A0F59170064B43F830107047DA
:1020F0000321EFE741F02001F1E72030024B43F8E4
:10210000301070470020054000100540B0F5A17F59
:1021100009D3094AA0F5917052F8303043F0010319
:1021200042F830307047054A203052F8303043F0E2
:10213000010342F830307047002005400010054090
:10214000B0F5A17F09D3094AA0F5917052F830305B
:1021500023F0010342F830307047054A203052F82E
:10216000303023F0010342F8303070470020054042
:102170000010054010B5B0F5A17F09D3A0F591730B
:102180000D4A52F8334014F0010F07D1002010BD62
:1021900000F12003094A52F83340F4E7FFF706FE46
:1021A000FFF78FFF14F0E00F03D10123B0FBF3F032
:1021B000EDE70223FAE700BF0020054000100540CC
:1021C0007047FFFF70B58AB005460E4614464CF2C4
:1021D00050330993062818D00023012229460420F1
:1021E000FFF730FF4A4A536C43F0010353648DF804
:1021F000085001A93046FFF79DFE464B9E4216D976
:10220000019B13F0400F03D0FEE7FFF7F5FDE3E776
:1022100013F0800F05D023F08003019300250126E1
:1022200007E0049B013304930125002601E000250B
:102230002E469DF80820019B43EA0263059A43EA73
:102240000243039A43EA0233049A43EA022343F423
:1022500000632F4A53642E4B1B6C13F0010FFAD00E
:102260000023012209210420FFF7ECFE06B34CF203
:1022700050330993099B5A1E0992002BFAD1019BF6
:1022800043F0800301939DF8082043EA0263059A16
:1022900043EA0243039A43EA0233049A43EA0223DD
:1022A00043F400631A4A5364002C2ED10AB070BD67
:1022B000002DF9D04CF250330993099B5A1E099214
:1022C000002BFAD1049B5A1E04929DF80810019B22
:1022D00043EA0163059943EA0143039943EA013361
:1022E00043EA022343F40063094A5364DCE70A48E3
:1022F00000EB8401CB788A78497810F82400FFF746
:10230000A1FE0134112CF2D9D0E70024FAE700BF76
:102310000000054080778E06D82E001A034B9842A5
:1023200001D083207047A520704700BF00500C40AB
:10233000044B984202D040F2022070474FF4F170F3
:10234000704700BF00500C40036823F47F4309022C
:1023500089B2194301600261704770B506460D46A7
:10236000FFF7E6FFFFF706FF02224FF0FF330021E1
:1023700000E02146AB420BD94C1C02FB04F3B0FB3E
:10238000F3F39D42F6D2FF2CF3D902320021F1E79C
:102390003046FFF7D9FF70BD10B50446FFF7BEFF0A
:1023A000FFF7B4FE2046FFF7C3FFFFF7AFFE6368F9
:1023B00023F004036360236823F0FF0343F0070363
:1023C000236002492046FFF7C8FF10BDA086010028
:1023D00008B50B4A0B4B9A6003F50C731B6903F4A9
:1023E0007F63202B04D0FFF743FAFFF7D3F908BD32
:1023F000044AD2F8883043F47003C2F88830F2E718
:102400000000001A00ED00E0044B1860044A136855
:1024100043F0010313600120704700BF340C00102B
:10242000001000E02DE9F84380468946194C45002C
:102430002A189300E618E7583846FFF773FA49461A
:102440003846FFF799FA0723BB603B680123FB6519
:1024500030797379B27942F018020F4903EB4013D7
:1024600041F82320F079337A727A42F0D00203EBFC
:10247000401341F82320B8F1010F01D0BDE8F883E3
:10248000064AD36C43F03003D3641A22C1F8082300
:10249000F4E700BF202F001A006008400010084039
:1024A000014BD3E900017047500C001018B1044BE8
:1024B00007221A607047024B00221A60704700BF63
:1024C00010E000E038B550EA01042AD010F1FF32E4
:1024D00041F1FF33002B08BF322A27D2144BC3E946
:1024E0000001144B1B68A3FB004503FB01554FF48F
:1024F0007A7200232046294600F01EFA0138B0F116
:10250000807F09D20C4B58600C4AE02182F82310DE
:1025100000229A6007221A600120FFF7C7FF0120FE
:1025200038BD0020FFF7C2FF0020F9E70020F7E7E1
:10253000380C0010F00C001010E000E000ED00E09E
:1025400008B5074A13685168013341F1000113606F
:102550005160044B1B6813B1034A1068984708BDCB
:10256000500C0010580C00104C0C001030B583B00B
:1025700018B101284AD003B030BD264B6D4693E810
:10258000030085E80300244C29462046FFF7ACFAF7
:1025900000212046FFF718FB204A29462046FFF776
:1025A000DFFA002201212046FFF7F9FA002201217B
:1025B0002046FFF7C4FA002202212046FFF7EFFA77
:1025C000002202212046FFF7BAFA0022032120460A
:1025D000FFF7E5FA002203212046FFF7B0FA0022B8
:1025E00004212046FFF7DBFA002204212046FFF7F2
:1025F000A6FA0B4AD2F8883C43F01003C2F8883C94
:10260000002205212046FFF79AFAB4E70248FFF7B7
:102610008BFAB0E7682F001A00300E40400D03001F
:102620000060084030B40B4D00EB80002C18285699
:10263000087094F90110117094F902201A7094F93D
:102640000320029B1A7094F90420039B1A7030BC7B
:10265000704700BF702F001A10F1020F00F0C78002
:10266000B0F1FF3F00F0C58070B584B00C46002388
:102670008DF80F308DF80E308DF80D308DF80C3050
:102680008DF80B300DF10B03019303AB00930DF1AB
:102690000D030DF10E020DF10F01FFF7C3FF052C25
:1026A00000F2A980DFE804F009812745630353485D
:1026B000FFF786FD012004B070BD9DF80F109DF856
:1026C0000E309DF80D2042F0D00203EB41134C492F
:1026D00041F823209DF80C309DF90B20012000FAD1
:1026E00002F1464C03F5006354F8232022EA01026C
:1026F00044F82320DFE79DF80F109DF80E309DF879
:102700000D2042F0C00203EB41133D4941F8232064
:102710009DF80C309DF90B20012000FA02F1374C96
:1027200003F5006354F8232022EA010244F8232031
:10273000C1E79DF80F109DF80E309DF80D2042F076
:10274000D80203EB41132E4941F823209DF80C30A9
:102750009DF90B20012000FA02F1284C03F50063DB
:1027600054F8232022EA010244F82320A3E79DF82D
:102770000F109DF80E309DF80D2042F0C80203EBBB
:1027800041131F4941F823209DF80C309DF90B207F
:10279000012000FA02F1194C03F5006354F82320DC
:1027A00022EA010244F8232085E79DF80F109DF8E6
:1027B0000E309DF80D2042F0D00203EB411310497A
:1027C00041F823209DF80C409DF90B20012000FAD0
:1027D00002F10A4B04F5006553F82560314343F8D4
:1027E0002510D2B203EB44130021995463E7002073
:1027F00070470020704700205DE700BF00400F4099
:102800000060084010F1020F2DD0B0F1FF3F2CD036
:1028100010B584B00C4600238DF80F308DF80E30C3
:102820008DF80D308DF80C308DF80B300DF10B0359
:10283000019303AB00930DF10D030DF10E020DF1A9
:102840000F01FFF7EFFE9DF80C309DF80B20211CC7
:1028500018BF01215B0103F1402303F57023995454
:10286000012004B010BD0020704700207047FFFF1A
:1028700008B5044B1B681B68DB68034A106898475F
:1028800008BD00BFF40C00105C0C001008B5FFF789
:10289000ADF91A4B1868FFF7B7FD01200021FFF7CB
:1028A00011FE05210020FFF7D7FE00212420FFF7AD
:1028B000D3FE00212520FFF7CFFE00212620FFF7C1
:1028C000CBFE00212720FFF7C7FE01212820FFF7BC
:1028D000C3FE01212920FFF7BFFE01212A20FFF7B7
:1028E000BBFE01212B20FFF7B7FE01212C20FFF7B3
:1028F000B3FE01212D20FFF7AFFE08BDF00C001044
:102900002DE9F84380468946FFF7CAFD06460F4683
:10291000FFF7C6FD841B61EB0705064BD3E90023D7
:102920004046494600F008F88D4208BF8442EFD384
:10293000BDE8F883380C001053B94AB9002908BF24
:1029400000281CBF4FF0FF314FF0FF3000F074B98A
:10295000ADF1080C6DE904CE00F006F8DDF804E0F6
:10296000DDE9022304B070472DE9F047089E0446D4
:102970008846002B40F085808A42154648D9B2FA35
:1029800082F24AB1C2F1200701FA02F320FA07F7F6
:10299000954047EA030894404FEA154E230CB8FBD4
:1029A000FEF71FFA85FC0EFB178843EA084307FB76
:1029B0000CF1994209D9EB1807F1FF3080F0E38060
:1029C000994240F2E080023F2B445B1AA4B2B3FB71
:1029D000FEF00EFB103344EA034400FB0CFCA4455C
:1029E00009D92C1900F1FF3380F0CB80A44540F2C7
:1029F000C88002382C4440EA0740A4EB0C040027AE
:102A00001EB1D4400023C6E900433946BDE8F08733
:102A1000002A53D0B2FA82F2002A40F0B680491B55
:102A20004FEA154E1FFA85F80127B1FBFEFC230C77
:102A30000EFB1C1143EA014308FB0CF1994207D934
:102A4000EB180CF1FF3002D2994200F2EC80844680
:102A5000591AA3B2B1FBFEF00EFB101443EA044472
:102A600008FB00F8A04507D92C1900F1FF3302D26A
:102A7000A04500F2DC801846A4EB080440EA0C40B4
:102A8000BEE78B4208D9002E78D00027C6E90001A6
:102A900038463946BDE8F087B3FA83F77FB98B42F1
:102AA00002D3824200F2BD80841A61EB030301204D
:102AB0009846002EA9D0C6E90048A6E7FFDEC7F178
:102AC0002005BB4022FA05FC4CEA030C01FA07F48E
:102AD00020FA05F821FA05F34FEA1C4E48EA0404EF
:102AE000B3FBFEF9210C0EFB19331FFA8CF841EAF7
:102AF000034309FB08FA9A4502FA07F200FA07F1C4
:102B00000BD91CEB030309F1FF3080F088809A4554
:102B100040F28580A9F102096344A3EB0A03A4B241
:102B2000B3FBFEF00EFB103344EA034400FB08F84D
:102B3000A04508D91CEB040400F1FF336BD2A0457B
:102B400069D90238644440EA0940A4EB0804A0FBB8
:102B500002894C45C6464B4654D351D0002E69D00D
:102B6000B1EB0E0264EB030404FA05F522FA07F355
:102B7000FC401D43C6E90054002746E7374630466F
:102B800043E7184637E707461FE7C2F1200320FA5C
:102B900003F7954001FA02F021FA03F34FEA154ECC
:102BA0003843010CB3FBFEF71FFA85F80EFB173311
:102BB00041EA034107FB08F38B4204FA02F407D908
:102BC000691807F1FF3C28D28B4226D9023F2944DD
:102BD000CB1A81B2B3FBFEF00EFB103341EA034186
:102BE00000FB08F38B4207D9691800F1FF3C10D2B3
:102BF0008B420ED902382944C91A40EA074714E724
:102C00004145ABD2B8EB020E69EB0C02013813461A
:102C1000A4E76046F0E7184695E76746D8E781469F
:102C20007BE7384645E7ACF1020C2B4410E702384D
:102C30002C4421E73746E8E6704700BF70B50D4DDC
:102C40000D4C641BA4100026A64209D10B4D0C4C60
:102C5000FEF7E5FC641BA4100026A64205D170BD5A
:102C600055F8043B98470136EEE755F8043B984782
:102C70000136F2E75830001A5830001A5830001A5E
:102C80005C30001A0A44914200F1FF3300D17047D2
:102C900010B511F8014B03F8014F9142F9D110BD65
:102CA00002440346934200D1704703F8011BF9E741
:102CB000EF000000EF000000EF000000EF00000058
:102CC000EF000000EF000000AF000000AF000000C8
:102CD000EF0000007F0000007F000000EF00000018
:102CE0000F010000DF010000EF000000EF00000016
:102CF000EF000000EF000000EF000000EF00000018
:102D0000DF0100003F010000EF000000AF00000005
:102D100000000000EF000000EF0000003F01000095
:102D20003F0100001F0300007F0000003F01000082
:102D30008F0100003F0100003F0100003F01000043
:102D40003F010000DB000000DB0000008F010000FD
:102D50009F0000007F0000003F010000DF01000035
:102D60001F0300003F0100003F0100003F01000081
:102D70003F0100003F0100003F0100001F03000071
:102D8000DF0100003F010000DB0000000000000048
:102D90003F0100003F010000DF010000DF010000F3
:102DA000DF0100009F000000000000000004000898
:102DB00000090109050005010502000E010B010CC7
:102DC000030003030304050F0510030503060307AF
:102DD0000208FFFF001BB700010F010102004400C1
:102DE0000201440002024400020A4000020B4000BB
:102DF000020C40000100500001015000010250008F
:102E0000010650000601500006045000060550005F
:102E1000060754000608540006095000060A500030
:102E2000060B5000060C50000F04F0000103D50003
:102E30000104D500070116000702560002035200E4
:102E40000204520009055200090657000602570005
:102E5000C201A2018201620181008200A100A200E0
:102E600001020408030F0F0FFF000000000005001F
:102E70000A00200024000900400040000500600016
:102E8000A6000400C000C3000200E000E000010052
:102E90000001000103002001200106004001400163
:102EA0000C0042014201190062016201130082011B
:102EB00082011200A201A2011100C201C201100090
:102EC000E201E2010F00020202020E0022022202CF
:102ED0000D00230223021C0000010100090901006A
:102EE0000A090100010701010209010006090100A8
:102EF0000C0901010D0901000E0901000F09010073
:102F00001009010011090100120901001309010053
:102F100014110100191101001A1101001B11010007
:102F200000100840060402060502180000100840C0
:102F300009050709060718000020084000000000E6
:102F40000000190000100C400701060702061A00D5
:102F500000100C40010F010110011A0000200C406C
:102F60000203020204021B00801A06000A0000008D
:102F70000401000201070500030D0105000108041A
:102F8000020002020403000203040000020007041E
:102F900000030C03020405090301040508020304ED
:102FA00005030204040504060C000208060B0003D6
:102FB000070609000305060704050F0604000303BE
:102FC00004040002040405000205040600020604CD
:102FD0000804050C040A04050E010300000A01148C
:102FE00000000F011200000D011100000C01100083
:102FF0000003070700030F000100000100000000AC
:1030000000060A000306060804051006050003046E
:103010000601000300040904050D010400000B0172
:103020000F0000020100000004010100000801027D
:103030000000090106000109020004050002010464
:1030400005010202040502020A00000E020B000143
:083050000B020C00010CFFFF54
:04305800C517001A7E
:08305C000CF9FF7F01000000E8
:103064001010205F000000000000000000000000BD
:10307400000000000000000000000000000000004C
:10308400000000000000000007000F800F800F8088
:103094000F800F80070007000000000007000700F2
:1030A4000700000000000E380E380E380E380630C7
:1030B400000000000000000000000000000000000C
:1030C4000000000000000C300C300C307FFE7FFE4E
:1030D4000C300C300C300C307FFE7FFE0C300C308A
:1030E4000C3000000000024002400FF81FF81A40A4
:1030F4001A401FF00FF8025802581FF81FF0024040
:10310400024000000000000000000E100E300E709F
:1031140000E001C0038007000E700C70087000000E
:1031240000000000000000000F00198019801980C1
:103134000F000F080F9819F818F018E019F00F98FD
:1031440000000000000000000700070007000E0058
:10315400000000000000000000000000000000006B
:10316400000000000000000000F001C00380070020
:103174000E000E000E000E000700038001C000F0D8
:1031840000000000000000000F00038001C000E008
:10319400007000700070007000E001C003800F0038
:1031A400000000000000000001801188099007E081
:1031B40007E03FFC3FFC07E007E00990118801802D
:1031C40000000000000000000000000001800180F9
:1031D40001800FF00FF001800180018000000000E9
:1031E40000000000000000000000000000000000DB
:1031F40000000000000000000000070007000700B6
:103204000E000000000000000000000000000000AC
:1032140000001FF81FF8000000000000000000007C
:10322400000000000000000000000000000000009A
:103234000000000000000000000007000700070075
:10324400000000000000000000020006000E001C48
:103254000038007000E001C0038007000E001C006D
:1032640000000000000000000FF01C381C781CF85F
:103274001CF81DB81DB81F381F381E381C380FF035
:1032840000000000000000000180018003801F8016
:103294001F800380038003800380038003801FF06A
:1032A40000000000000000000FE01C701C38003813
:1032B400007000E001C0038007000E381C381FF8BE
:1032C40000000000000000000FE01C701C380038F3
:1032D400007003C003C0007000381C381C700FE07D
:1032E400000000000000000000E001E003E006E050
:1032F4000CE018E01FF81FF800E000E000E003F81D
:1033040000000000000000001FF81C001C001C004E
:103314001C001FE01FF0007800381C381C700FE000
:10332400000000000000000003E007000E001C0085
:103334001C001FF01FF81C381C381C381C380FF0F8
:1033440000000000000000001FFC1C1C1C1C1C1CB6
:10335400001C0038007000E001C00380038003807B
:1033640000000000000000000FF01C381C381C385E
:103374001F3807E007E01CF81C381C381C380FF015
:1033840000000000000000000FF01C381C381C383E
:103394001C381FF80FF800380038007000E007C030
:1033A4000000000000000000000000000380038013
:1033B40003800000000003800380038000000000FD
:1033C40000000000000000000000000003800380F3
:1033D40003800000000003800380038007000000D6
:1033E400000000000000007000E001C0038007003E
:1033F4000E001C001C000E000700038001C000E04A
:1034040000700000000000000000000000003FFC0D
:103414003FFC000000003FFC3FFC000000000000F7
:103424000000000000001C000E000700038001C023
:1034340000E00070007000E001C0038007000E008F
:103444001C000000000003C00FF01E78183800387C
:10345400007000E001C001C00000000001C001C014
:1034640001C0000000000FF81C1C1C1C1C1C1C1CB0
:103474001CFC1CFC1CFC1CFC1C001C001C001FF085
:1034840007F800000000000003C007E00E701C38BD
:103494001C381C381C381FF81C381C381C381C38C5
:1034A40000000000000000001FF00E380E380E3837
:1034B4000E380FF00FF00E380E380E380E381FF09D
:1034C400000000000000000007F00E381C381C004B
:1034D4001C001C001C001C001C001C380E3807F0CB
:1034E40000000000000000001FE00E700E380E38CF
:1034F4000E380E380E380E380E380E380E701FE0A7
:1035040000000000000000001FF80E180E080E0056
:103514000E300FF00FF00E300E000E080E181FF8CC
:1035240000000000000000001FF80E180E080E0036
:103534000E300FF00FF00E300E000E000E001F00C4
:10354400000000000000000007F00E381C381C3892
:103554001C001C001C001CF81C381C380E3807F812
:1035640000000000000000001C701C701C701C7027
:103574001C701FF01FF01C701C701C701C701C70E1
:1035840000000000000000000FE0038003800380BF
:1035940003800380038003800380038003800FE0A3
:1035A400000000000000000001FC007000700070CA
:1035B40000700070007038703870387038700FE028
:1035C40000000000000000001E380E380E700EE0EF
:1035D4000FC00F800F800FC00EE00E700E381E3823
:1035E40000000000000000001F000E000E000E008E
:1035F4000E000E000E000E000E080E180E381FF8F6
:1036040000000000000000001C1C1E3C1F7C1FFC6E
:103614001FFC1DDC1C9C1C1C1C1C1C1C1C1C1C1CC2
:1036240000000000000000001C1C1C1C1E1C1F1CB1
:103634001F9C1DDC1CFC1C7C1C3C1C1C1C1C1C1C22
:10364400000000000000000003E007F00E381C1C1E
:103654001C1C1C1C1C1C1C1C1C1C0E3807F003E02E
:1036640000000000000000001FF00E380E380E3875
:103674000E380FF00FF00E000E000E000E001F00AB
:10368400000000000000000003E00F780E381C1C4E
:103694001C1C1C1C1C1C1C7C1CFC0FF80FF8003888
:1036A40000FC0000000000001FF00E380E380E3839
:1036B4000E380FF00FF00E700E380E380E381E381C
:1036C40000000000000000000FF01C381C381C38FB
:1036D4001C000FE007F000381C381C381C380FF0B1
:1036E40000000000000000001FFC19CC11C401C040
:1036F40001C001C001C001C001C001C001C007F088
:1037040000000000000000001C701C701C701C7085
:103714001C701C701C701C701C701C701C700FE0E2
:1037240000000000000000001C701C701C701C7065
:103734001C701C701C701C701C700EE007C0038091
:1037440000000000000000001C1C1C1C1C1C1C1C95
:103754001C1C1C9C1C9C1C9C0FF80FF80770077009
:1037640000000000000000001C701C701C700EE0C3
:1037740007C00380038007C00EE01C701C701C701F
:1037840000000000000000001C701C701C701C7005
:103794001C700EE007C003800380038003800FE0E9
:1037A40000000000000000001FF81C3818381070DA
:1037B40000E001C0038007000E081C181C381FF825
:1037C400000000000000000007F0070007000700E9
:1037D400070007000700070007000700070007F0BD
:1037E4000000000000000000100018001C000E0083
:1037F4000700038001C000E000700038001C0007CF
:10380400000000000000000007F00070007000706D
:10381400007000700070007000700070007007F09D
:10382400000000000000018003C007E00E701C3897
:103834000000000000000000000000000000000084
:103844000000000000000000000000000000000074
:103854000000000000000000000000000000000064
:103864007FFF7FFF000000001C001C000700070012
:103874000000000000000000000000000000000044
:103884000000000000000000000000000000000034
:103894000FE0007000700FF01C701C701C700FD8CB
:1038A40000000000000000001E000E000E000E00CC
:1038B4000FF00E380E380E380E380E380E381BF056
:1038C40000000000000000000000000000000000F4
:1038D4000FE01C701C701C001C001C701C700FE09E
:1038E400000000000000000000F80070007000708C
:1038F4000FF01C701C701C701C701C701C700FD896
:1039040000000000000000000000000000000000B3
:103914000FE01C701C701FF01C001C701C700FE06A
:10392400000000000000000003E0077007700700BB
:1039340007001FE01FE007000700070007001FC083
:103944000000000000000000000000000000000073
:103954000FD81C701C701C701C700FF007F00070E6
:103964001C700FE0000000001E000E000E000E0090
:103974000EF00F380F380E380E380E380E381E3849
:10398400000000000000000001C001C001C00000F0
:103994000FC001C001C001C001C001C001C00FF8C7
:1039A40000000000000000000070007000700000C3
:1039B40003F00070007000700070007000701C70E4
:1039C4000CF007E0000000001E000E000E000E00C8
:1039D4000E380E700EE00FC00EE00E700E381E385A
:1039E40000000000000000000FC001C001C001C0C1
:1039F40001C001C001C001C001C001C001C00FF875
:103A040000000000000000000000000000000000B2
:103A14001FF81C9C1C9C1C9C1C9C1C9C1C9C1C9C83
:103A24000000000000000000000000000000000092
:103A34001FE01C701C701C701C701C701C701C70AF
:103A44000000000000000000000000000000000072
:103A54000FE01C701C701C701C701C701C700FE03C
:103A64000000000000000000000000000000000052
:103A74001BF00E380E380E380E380E380FF00E00CC
:103A84000E001F0000000000000000000000000005
:103A94001FB038E038E038E038E038E01FE000E0FC
:103AA40000E001F000000000000000000000000041
:103AB4001EF00FF80F380E000E000E000E001F004F
:103AC40000000000000000000000000000000000F2
:103AD4000FE01C301C300F8003E0187018700FE0EA
:103AE40000000000000000000000010003000700C7
:103AF4001FF007000700070007000770077003E0C6
:103B040000000000000000000000000000000000B1
:103B14001C701C701C701C701C701C701C700FD8E6
:103B24000000000000000000000000000000000091
:103B34001C701C701C701C701C700EE007C003808D
:103B44000000000000000000000000000000000071
:103B54001C1C1C1C1C1C1C9C1C9C0FF80770077054
:103B64000000000000000000000000000000000051
:103B74001CE01CE00FC0078007800FC01CE01CE0A5
:103B84000000000000000000000000000000000031
:103B94000E380E380E380E380E3807F003E000E009
:103BA40001C01F80000000000000000000000000B1
:103BB4001FE018E011C0038007000E201C601FE006
:103BC400000000000000000001F80380038003806F
:103BD40007001C001C00070003800380038001F819
:103BE40000000000000001C001C001C001C001C00C
:103BF40001C001C001C001C001C001C001C001C0B9
:103C040001C00000000000001F8001C001C001C00D
:103C140000E00038003800E001C001C001C01F808E
:103C240000000000000000001F1C3B9C39DC38F839
:103C34000000000000000000000000000000000080
:103C4400000000001400000001FFFFFF110000004D
:103C5400040000000500000001FFFFFF00100A40FF
:103C6400220000007D18001A00000000000000007F
:103C7400000000000000000000000E4001000000F1
:103C84007D18001A00000000000000000000000081
:103C94000000000000CB280C010000000000000020
:040000051A00159533
:00000001FF
