:020000041A00E0
:1000000000800010C91E001A7901001A7B01001A35
:100010007D01001A7F01001A8101001AC659FF53A1
:100020000000000000000000000000008301001A32
:100030008501001A000000008701001A952E001AA1
:10004000BB01001ABB01001ABB01001A000000002E
:10005000BB01001ABB01001ABB01001ABB01001A48
:10006000C531001ABB01001ABB01001ABB01001AFE
:10007000BB01001ABB01001ABB01001ABB01001A28
:10008000BB01001ABB01001ABB01001ABB01001A18
:10009000BB01001ABB01001ABB01001ABB01001A08
:1000A000BB01001ABB01001ABB01001ABB01001AF8
:1000B000BB01001ABB01001ABB01001ABB01001AE8
:1000C000BB01001ABB01001ABB01001ABB01001AD8
:1000D000BB01001ABB01001ABB01001ABB01001AC8
:1000E000BB01001ABB01001ABB01001ABB01001AB8
:1000F00000000000BB01001ABB01001ABB01001A7E
:1001000000000000BB01001ABB01001ABB01001A6D
:10011000BB01001A5062001A00000010A40C00007D
:100120005062001A00000810000000005062001A1F
:1001300000000020000000005062001A0080002033
:10014000000000005062001A00C000200000000003
:10015000A80C0010D80000000000081000000000EB
:1001600000000020000000000080002000000000CF
:1001700000C0002000000000FEE7FEE7FEE7FEE70B
:10018000FEE7FEE7FEE7FEE7FEE7002393420AD222
:1001900010B450F8044B41F8044B04339342F8D3A5
:1001A0005DF8044B7047704700238B4204D2002255
:1001B00040F8042B0433F8E77047FEE7FFFFFFFF2A
:1001C000FFFFFFFFFFFFFFFFFFFFFFFFFFFFFFFF3F
:1001D000FFFFFFFFFFFFFFFFFFFFFFFFFFFFFFFF2F
:1001E000FFFFFFFFFFFFFFFFFFFFFFFFFFFFFFFF1F
:1001F000FFFFFFFFFFFFFFFFFFFFFFFFFFFFFFFF0F
:10020000FFFFFFFFFFFFFFFFFFFFFFFFFFFFFFFFFE
:10021000FFFFFFFFFFFFFFFFFFFFFFFFFFFFFFFFEE
:10022000FFFFFFFFFFFFFFFFFFFFFFFFFFFFFFFFDE
:10023000FFFFFFFFFFFFFFFFFFFFFFFFFFFFFFFFCE
:10024000FFFFFFFFFFFFFFFFFFFFFFFFFFFFFFFFBE
:10025000FFFFFFFFFFFFFFFFFFFFFFFFFFFFFFFFAE
:10026000FFFFFFFFFFFFFFFFFFFFFFFFFFFFFFFF9E
:10027000FFFFFFFFFFFFFFFFFFFFFFFFFFFFFFFF8E
:10028000FFFFFFFFFFFFFFFFFFFFFFFFFFFFFFFF7E
:10029000FFFFFFFFFFFFFFFFFFFFFFFFFFFFFFFF6E
:1002A000FFFFFFFFFFFFFFFFFFFFFFFFFFFFFFFF5E
:1002B000FFFFFFFFFFFFFFFFFFFFFFFFFFFFFFFF4E
:1002C000FFFFFFFFFFFFFFFFFFFFFFFFFFFFFFFF3E
:1002D000FFFFFFFFFFFFFFFFFFFFFFFFFFFFFFFF2E
:1002E000FFFFFFFFFFFFFFFFFFFFFFFFFFFFFFFF1E
:1002F000FFFFFFFFFFFFFFFFFFFFFFFFFFFFFFFF0E
:1003000070B5DEB00446244D7C26324629463FA80F
:1003100005F002F83246A91920A804F0FDFF01AB50
:1003200010221A605A609A600821D96019615A61D6
:1003300099611A480568DD611A62194800685862B7
:100340009862DA621A635A639963DA63154E366803
:100350001E645A649964D9641A655A659A65D965A8
:100360000021196658669D66DA661A675A679867AB
:100370005EAA02EB840252F87C0C0B49086052F82A
:10038000F81C0A4A116053F82420094B1A60094BE3
:100390001C605EB070BD00BF105C001AF00B001056
:1003A000F40B0010EC0B0010600D0010E40C0010BA
:1003B000040D0010FC0C001070B504460D46002121
:1003C000844B93F9000002F0C7FE0021824B93F9A1
:1003D000000002F0C1FE0021804B93F9000002F002
:1003E000BBFE00217E4B93F9000002F0B5FE002118
:1003F0007C4B93F9000002F0AFFE00217A4B93F999
:10040000000002F0A9FE0021784B93F9000002F0F1
:10041000A3FE0021764B93F9000002F09DFE00211F
:10042000744B93F9000002F097FE0021724B93F990
:10043000000002F091FE0021704B93F9000002F0E1
:100440008BFE00216E4B93F9000002F085FE002127
:100450006C4B93F9000002F07FFE00216A4B93F988
:10046000000002F079FE0021684B93F9000002F0D1
:1004700073FE0021664B93F9000002F06DFE15F04B
:10048000400F36D114F0020F3AD114F004063ED1D9
:1004900014F0010F42D115F0010F46D115F0020FF3
:1004A0004AD115F0040F4ED115F0080F52D115F0B6
:1004B000100F56D115F0200F5AD115F0800F5ED1D4
:1004C00014F0080562D114F0100F66D114F0200F5B
:1004D0006AD1002E6FD1002D74D14E4C012194F9B8
:1004E000000002F039FE002194F9000002F034FE11
:1004F00070BD0121374B93F9000002F02DFEC1E7DA
:100500000121354B93F9000002F026FEBDE70121E1
:10051000324B93F9000002F01FFEB9E70121304B86
:1005200093F9000002F018FEB5E701212D4B93F975
:10053000000002F011FEB1E701212B4B93F90000FE
:1005400002F00AFEADE70121284B93F9000002F00A
:1005500003FEA9E70121264B93F9000002F0FCFD00
:10056000A5E70121234B93F9000002F0F5FDA1E777
:100570000121214B93F9000002F0EEFD9DE70121DE
:100580001E4B93F9000002F0E7FD99E701211C4B97
:1005900093F9000002F0E0FD95E70121194B93F972
:1005A000000002F0D9FD91E70121174B93F90000FB
:1005B00002F0D2FD8DE70121144B93F9000002F007
:1005C000CBFD88E70121124B93F9000002F0C4FD36
:1005D00083E700BF640D0010E80C00101C0D001034
:1005E000310D0010F50C0010580D00102B0D0010EF
:1005F000D80C0010490D00102A0D00105B0D0010E2
:10060000000D00101E0D0010510D0010500D0010B7
:10061000520D0010E10C001010B504460121064BEC
:1006200093F9000002F098FD044B1A78214600204F
:10063000FFF7C2FE10BD00BF5C0D0010040D0010DE
:1006400010B504460021064B93F9000002F084FD2A
:10065000044B1A7821460020FFF7AEFE10BD00BF04
:100660005C0D0010040D001038B504460D46012144
:10067000054B93F9000002F06FFD044B1A782946F0
:100680002046FFF799FE38BD5C0D0010040D0010E8
:10069000F8B504460D4616460021E04B93F90000DC
:1006A00002F05AFD0021DE4B93F9000002F054FDE8
:1006B0000021DC4B93F9000002F04EFD0021DA4BE3
:1006C00093F9000002F048FD0021D84B93F9000097
:1006D00002F042FD0021D64B93F9000002F03CFDF0
:1006E0000021D44B93F9000002F036FD0021D24BDB
:1006F00093F9000002F030FD0021D04B93F9000087
:1007000002F02AFD0021CE4B93F9000002F024FDF7
:100710000021CC4B93F9000002F01EFD0021CA4BD2
:1007200093F9000002F018FD0021C84B93F9000076
:1007300002F012FD0021C64B93F9000002F00CFDFF
:100740000021C44B93F9000002F006FD0021C24BCA
:1007500093F9000002F000FD15F0400F40F0E68034
:1007600014F0020F40F0E98014F0040740F0EC8030
:1007700014F0010F40F0EF8015F0010F40F0F2800F
:1007800015F0020F40F0F58015F0040F40F0F880EE
:1007900015F0080F40F0FB8015F0100F40F0FE80C0
:1007A00015F0200F40F0018115F0800F40F004811A
:1007B00014F0080540F0078114F0100F40F00A8192
:1007C00014F0200F40F00D81002F40F01181002D1A
:1007D00040F015813746002EC0F218813F110025E8
:1007E000BD4280F216819D4C002194F9000002F078
:1007F000B3FC012194F9000002F0AEFC002194F951
:10080000000002F0A9FC012194F9000002F0A4FC10
:10081000002194F9000002F09FFC012194F90000EE
:1008200002F09AFC002194F9000002F095FC0121ED
:1008300094F9000002F090FC002194F9000002F00D
:100840008BFC012194F9000002F086FC002194F950
:10085000000002F081FC012194F9000002F07CFC10
:10086000002194F9000002F077FC012194F90000C6
:1008700002F072FC002194F9000002F06DFC0121ED
:1008800094F9000002F068FC002194F9000002F0E5
:1008900063FC012194F9000002F05EFC002194F950
:1008A000000002F059FC012194F9000002F054FC10
:1008B000002194F9000002F04FFC012194F900009E
:1008C00002F04AFC002194F9000002F045FC0121ED
:1008D00094F9000002F040FC002194F9000002F0BD
:1008E0003BFC012194F9000002F036FC002194F950
:1008F000000002F031FC012194F9000002F02CFC10
:10090000002194F9000002F027FC012194F9000075
:1009100002F022FC002194F9000002F01DFC0121EC
:1009200094F9000002F018FC013559E701213B4B16
:1009300093F9000002F010FC12E70121384B93F903
:10094000000002F009FC0FE70121364B93F900008B
:1009500002F002FC0CE70121334B93F9000002F096
:10096000FBFB09E70121314B93F9000002F0F4FB96
:1009700006E701212E4B93F9000002F0EDFB03E79F
:1009800001212C4B93F9000002F0E6FB00E7012166
:10099000294B93F9000002F0DFFBFDE60121274B14
:1009A00093F9000002F0D8FBFAE60121244B93F9F9
:1009B000000002F0D1FBF7E60121224B93F9000081
:1009C00002F0CAFBF4E601211F4B93F9000002F08C
:1009D000C3FBF1E601211D4B93F9000002F0BCFBC3
:1009E000EEE601211A4B93F9000002F0B5FBEBE6AD
:1009F0000121184B93F9000002F0AEFBE7E601215C
:100A0000154B93F9000002F0A7FBE3E606F10F0790
:100A1000E4E616F00F0F39D1F8BD00BF640D0010E9
:100A2000E80C00101C0D0010310D0010F50C00102A
:100A3000580D00102B0D0010D80C0010490D00109F
:100A40002A0D00105B0D0010000D00101E0D00108F
:100A5000510D0010500D0010520D0010E10C00104F
:100A60000B4D002195F9000002F076FB012195F96C
:100A7000000002F071FB0134724206F00F0302F035
:100A80000F0258BF5342A342EADAC5E70024F3E756
:100A9000E10C0010F8B505460F4614461E461A4BE9
:100AA0001A781A4B1B789A4225D02A20FFF7C8FDE6
:100AB000C7F30720FFF7B0FDF8B2FFF7ADFDC6F3AF
:100AC0000720FFF7A9FDF0B2FFF7A6FD2B20FFF7E7
:100AD000B7FDC5F30720FFF79FFDE8B2FFF79CFDC8
:100AE000C4F30720FFF798FDE0B2FFF795FD2C2037
:100AF000FFF7A6FDF8BD064B1B681A1B34461E1AED
:100B00000D461746D1E700BFF80B0010E80B0010A8
:100B1000E40C001008B50C4B1A780C4B1B789A4269
:100B200008D00B4B1B680B4A126800210846FFF7E0
:100B3000B1FF08BD074B1B68054A12680021084633
:100B4000FFF7A8FFF5E700BFF80B0010A80C001096
:100B5000600D0010E40C001010B50021254B93F936
:100B6000000002F0F9FAFFF7D5FF234B1B68012BB9
:100B700005D1214B1B68102B08D0002420E0012157
:100B80001E4B93F9000002F0E7FAF2E71C4B1B68DA
:100B90001C4A1268013203FB022200210846FFF7BB
:100BA00077FD0121134B93F9000002F0D5FAFFF70E
:100BB000B1FF10BDD2B200210846FFF7FDFB0134A2
:100BC0000F4B1A680F4B1B68013302FB0333A34220
:100BD000E7DD094B1A68012AECD1D2B200210120CD
:100BE000FFF7EAFB044B1A7800210120FFF7E4FB32
:100BF000E5E700BF5D0D0010040D00105C0D001056
:100C0000600D0010E40C0010054B186002781A719A
:100C100042785A7182789A71C278DA71704700BF4F
:100C20003C0D001008B5E220FFF70AFD2320FFF776
:100C3000F3FC0220FFF7F0FC0420FFF7EDFCE020BE
:100C4000FFF7FEFC0120FFF7E7FC0120002102F086
:100C500001FBE020FFF7F4FC0320FFF7DDFC01209F
:100C6000002102F0F7FA0120FFF7EAFC052000213D
:100C700002F0F0FAE620FFF7E3FC0420FFF7CCFCDB
:100C80009320FFF7C9FCE020FFF7C6FCB020FFF778
:100C9000D7FC0020FFF7C0FC0020FFF7BDFC0320BD
:100CA000FFF7BAFC1F20FFF7B7FC0120FFF7B4FCE9
:100CB000DF20FFF7B1FC0020FFF7AEFCB420FFF708
:100CC000BFFC0320FFF7A8FCA020FFF7A5FC002035
:100CD000FFF7A2FC2E20FFF79FFC3020FFF79CFCC3
:100CE0000020FFF799FC0F20FFF796FC0020FFF78C
:100CF00093FCB620FFF7A4FC0220FFF78DFC0D202B
:100D0000FFF78AFC0020FFF787FC1020FFF784FC28
:100D10001020FFF781FC0020FFF77EFC0820FFF782
:100D20007BFCBA20FFF78CFC0520FFF775FCB82090
:100D3000FFF786FC0720FFF76FFC0120FFF76CFC34
:100D40003620FFF77DFC2220FFF766FCF020FFF73E
:100D500077FC0320FFF760FC0120002102F07AFA03
:100D600040F2DF1340F21F3200210846FFF792FEE7
:100D70002920FFF765FCBE20FFF762FC0620FFF785
:100D80004BFCF020FFF748FC0120FFF745FCF0206A
:100D9000FFF742FC0020FFF73FFC0020FFF73CFC80
:100DA000D020FFF74DFC0D20FFF736FC2C20FFF77D
:100DB00047FC08BD00F0F80040B240EA5110054B76
:100DC0001870C90021F01F0149B241EAD202024B5A
:100DD0001A707047D90C0010E00C00100212024B80
:100DE0001A70024B18707047D90C0010E00C0010FC
:100DF00000F0F80040B240EA5110074B1870C900EB
:100E000021F01F0149B241EAD202044B1A70044B8F
:100E100000221A70704700BF280D00101D0D001031
:100E2000290D001010B51D4B18701D4C012194F9AF
:100E3000000002F091F90120002102F00BFA0021DC
:100E400094F9000002F088F90120002102F002FA72
:100E5000012194F9000002F07FF90120002102F045
:100E6000F9F9104C002194F9000002F075F9FFF730
:100E7000D9FE012194F9000002F06EF9FF2211461B
:100E80001046FFF797FF002211461046FFF7B0FF0C
:100E90000023054A1360054A137010BDF80B0010BB
:100EA000650D00105D0D00103C0D0010290D0010A7
:100EB00070B504460E46151E18DB0021144B93F93D
:100EC000000002F049F93346621931462046FFF727
:100ED000E1FD104B1B68102B0BD001210C4B93F93B
:100EE000000002F039F9FFF715FE70BD2C446D4289
:100EF000E3E70121084B93F9000002F02DF92A469F
:100F0000064B1978064B1878FFF7C2FBE5E700BFE0
:100F10005D0D0010040D00105C0D0010E00C0010C1
:100F2000D90C001070B506460C46151E18DB0021C2
:100F3000144B93F9000002F00FF963193246214671
:100F40003046FFF7A7FD104B1B68102B0BD001217B
:100F50000C4B93F9000002F0FFF8FFF7DBFD70BDCA
:100F60002C446D42E3E70121084B93F9000002F0A5
:100F7000F3F82A46064B1978064B1878FFF788FBDA
:100F8000E5E700BF5D0D0010040D00105C0D0010C2
:100F9000E00C0010D90C00102DE9F84F05460C4666
:100FA0009146994233D01E46824237D0824239DD83
:100FB000171AA94538DD4FF0010AB44237DAA6EB1B
:100FC0000408B44236DA4FF0010B0021264B93F9A6
:100FD000000002F0C1F847452FD24FEA5809C9F185
:100FE000000923462A4621462846FFF753FD1F4B9A
:100FF00019781F4B1878FFF737FBB4420CD05C44CC
:1010000019EB0709EDD45544A9EB0809E9E7121AD1
:10101000FFF74EFFFFF77EFDBDE8F88F5A1AFFF786
:1010200081FFF7E7871AC4E74FF0FF3AC5E7A4EB63
:101030000608C6E74FF0FF3BC7E77E087642234627
:101040002A4621462846FFF725FD084B1978084B0C
:101050001878FFF709FB4D45DED0554416EB08061E
:10106000EDD45C44F61BEAE75D0D0010E00C0010C7
:10107000D90C001008B5C1B2C0F30720FFF7F4FA8D
:1010800008BDFFFF70B505460E460E4C002194F9D1
:10109000000002F061F833462A4631462846FFF741
:1010A000F9FC094B1878094B1B7843EA0020FFF73D
:1010B000E1FF012194F9000002F04EF8FFF72AFD4C
:1010C00070BD00BF5D0D0010D90C0010E00C0010C9
:1010D0002DE9F0470446884691460021754B93F967
:1010E000000002F039F8744B1B78002B40F096801A
:1010F000724B1A78724B1B789A420DD0714A9779CD
:10110000E41B1379DB08577907FB03F707FB04F7A8
:1011100004374FF0000A6AE06A4D2A7942446B793D
:101120004B44013B013A49464046FFF7B3FCAE79D8
:10113000A41B2B79DB086E7906FB03F606FB04F68D
:10114000043600271DE0604B1878604B1B7843EA9B
:101150000020FFF78FFF0134E4B2072C0FD8C4F151
:10116000070345FA03F313F0010FECD0584B18783E
:10117000584B1B7843EA0020FFF77CFFEBE7013672
:10118000013750490B79DA084B7903FB02F3BB4274
:1011900040F386804B4B1B689D5D0024DDE74A4B86
:1011A00018784A4B1B7843EA0020FFF763FF0134AD
:1011B000E4B2072C0DD845FA04F313F0010FEED07A
:1011C000434B1878434B1B7843EA0020FFF752FF4C
:1011D000EDE7013E002E05DB3A4B1A68BB19D55CE2
:1011E0000024E6E7374B1B79DB081F449A44354956
:1011F0000A79D308497901FB03F1514550DD9AFB87
:10120000F3F303EB090142440B46013A4046FFF772
:1012100041FC2C4B1E79F608013EDBE7294A937905
:10122000E41A1379DB0892F805A00AFB03FA0AFB1B
:1012300004F404F1040A00272CE004EB080000EB9E
:10124000C60007EB09014B1C421CFFF723FC204B97
:101250001878204B1B7843EA0020FFF70BFF01347E
:10126000E4B2072C07D8C4F1070345FA03F313F0DF
:10127000010FF4D0E1E70136124B1B79DB08B342D2
:1012800006DD104B1A680AEB0603D55C0024E8E77C
:101290009A4401370B4B5B79BB4201DD0026EBE73B
:1012A0000121044B93F9000001F056FFFFF732FCD7
:1012B000BDE8F0875D0D0010290D0010F80B00103F
:1012C000A80C00103C0D0010280D00101D0D001082
:1012D000D90C0010E00C00102DE9F04107460C4637
:1012E00016461D46904201DC06461746AC4202DC1B
:1012F0002B4625461C46A7EB0608424629463046A3
:10130000FFF7D6FD424621463046FFF7D1FD641B6C
:10131000224629463046FFF705FE22462946384632
:10132000FFF700FEBDE8F0812DE9F04F83B00646DF
:101330000F4614461D46904201DC04461646AF4255
:1013400002DC2B463D461F46A6EB0408B8F1040F0D
:1013500004DDA7EB0509B9F1040F02DC03B0BDE819
:10136000F08F04F1010B05F1010A51465846FFF7D1
:1013700089FE731E514601931846FFF783FE07F15D
:10138000FF3A51465846FFF77DFE51460198FFF758
:1013900079FE04F1020AA8F10408424629465046A3
:1013A000FFF786FD424639465046FFF781FD02357C
:1013B000A9F104094A4629462046FFF7B3FD4A46EB
:1013C00029463046FFF7AEFDC8E7FFFF2DE9F04F95
:1013D00085B0834688461646C2F1010AC2EBC27246
:1013E0005300039300215D4B93F9000001F0B4FE1C
:1013F00006EB08010B465A465846FFF74BFB584D83
:10140000584C29782078FFF72FF9A8EB06010B46F6
:101410005A465846FFF73EFB29782078FFF724F913
:1014200006EB0B00434602464146FFF733FB2978A3
:101430002078FFF719F9ABEB060043460246414618
:10144000FFF728FB29782078FFF70EF90027012302
:101450000193CDF800806BE00137019B02330193CB
:101460009A440BEB07010846009B06EB03094B4629
:101470000A4649460290FFF70DFB394D394C297851
:101480002078FFF7F1F8ABEB07084B464246494698
:101490004046FFF7FFFA29782078FFF7E5F8009A31
:1014A000A2EB06094B46029802464946FFF7F2FABC
:1014B00029782078FFF7D8F84B46424649464046FF
:1014C000FFF7E8FA29782078FFF7CEF806EB0B094A
:1014D000009901EB070843464A4641464846FFF754
:1014E000D9FA29782078FFF7BFF8ABEB060243461C
:1014F000104641460292FFF7CDFA29782078FFF78F
:10150000B3F80099A1EB070843464A4641464846CE
:10151000FFF7C0FA29782078FFF7A6F8434602982B
:1015200002464146FFF7B6FA29782078FFF79CF883
:10153000B74208DABAF1000F8EDB013E039B02339B
:1015400003939A4488E70121044B93F9000001F0CA
:1015500003FEFFF7DFFA05B0BDE8F08F5D0D001068
:10156000E00C0010D90C00102DE9F04780460F4622
:1015700015465642344610E003EB0809C3EBC3732B
:101580004FEA430A5246E1194846FFF791FC52469A
:10159000391B4846FFF78CFC0134002C0CDC334629
:1015A000002BF9DC04FB04F203FB032205FB05F12D
:1015B0008A42E1DD0133F3E7BDE8F087FFFFFFFF7B
:1015C0002DE9F04F2DED028B8DB004460B9117469F
:1015D0001E46189803F0CCF974A3D3E9002303F056
:1015E00031FA41EC180B0021694B93F9000001F02E
:1015F000B3FD68498B79E41A0B79DA084B7903FB60
:1016000002F303FB04F304330A93002308930997BE
:10161000A4E0614B1878614B1B7843EA0020FFF788
:1016200029FD0135EDB2072D7FD805EBCA00594BD6
:101630001B790BFB030003F09BF906460F46B0EE47
:10164000480AF0EE680A01F023FE54EC103B8DEDE1
:10165000040B10EE102A2346CDE9026730463946C6
:1016600003F0F0F906460F46089803F081F9CDE93A
:101670000001B0EE480AF0EE680A01F069FE54EC91
:10168000103B8DED060B10EE102A2346DDE900011C
:1016900003F0D8F902460B463046394603F01AF8F3
:1016A00006460F46484603F063F932463B4603F0D0
:1016B00013F803F061FC0446DDE90023DDE90401D1
:1016C00003F0C0F906460F46DDE90623DDE9020115
:1016D00003F0B8F902460B463046394602F0FCFFEB
:1016E00006460F46099803F043F932463B4602F09E
:1016F000F3FF03F041FC0146431C621C2046FFF748
:10170000C9F9C5F1070348FA03F313F0010F80D1BB
:10171000234B1B78002B84D1224B1878224B1B784B
:1017200043EA0020FFF7A6FC7BE74F460AF1010AD7
:10173000184B1B79DB08534508DD164B1A680A9BCA
:101740005344D65C0025B046B9466CE75E460A9A1B
:101750001A440A92089B0133DBB208930D4B5B7964
:10176000089A934205D94FF0000BDA460B9FB34617
:10177000DEE70121064B93F9000001F0EDFCFFF7D5
:10178000C9F90DB0BDEC028BBDE8F08FAFF300805E
:101790005D0D00103C0D0010D90C0010E00C001085
:1017A000290D0010280D00101D0D0010EC51B81E61
:1017B00085EB913F2DE9F04383B004460E469146F8
:1017C0001F4604F021F880462B4B1A782B4B1B78D0
:1017D0009A4209D042F20F739E4220D042F20E7319
:1017E0009E4224D0002536E042F20F739E420ED076
:1017F00042F20E739E42F5D1214B1A680132214B01
:101800001B7900FB132000EBD0704610EAE71C4B5D
:101810001B6801331B4A167900FB1636E8E71A4BA2
:101820001B680133174A167900FB1636D6E7164BAC
:101830001B680133134A167900FB163000EBD07099
:101840004610CFE714F8010B00972B464A46314665
:10185000FFF7B6FE013545450BDA002FF2D1094BF3
:1018600019794A4605FB016114F8010BFFF730FCBA
:10187000F0E703B0BDE8F083F80B0010A80C0010EF
:10188000600D00103C0D0010E40C00102DE9F0413B
:101890008EB09DF85070E8B933B930238DF8003020
:1018A00000238DF8013071E000205C1E844205DDCC
:1018B0000EAC044404F8387C0130F6E70EAB034468
:1018C000302403F8384C01300EAB1844002300F8E4
:1018D000383C5BE0044600281FDB4FF0000C00257D
:1018E000002C1EDD2D4E86FB040EE017C0EBAE0073
:1018F00000EB80004FEA400EA4EB0E0000F1300830
:101900000DF1380EAE440EF81C8C0135201A86FB02
:101910000064C017C0EBA404E2E744424FF0010C9E
:10192000DDE700240EA8284400F81C4CBCF1000F91
:1019300002D02D208DF800006646AC449C451DDB8E
:1019400000240027BD421BDDE81B0138F3192344A6
:101950000DF1380E704410F81C0C734403F8380C69
:101960000137EFE730190DF1380E704400F8387C7C
:101970000134581B801BA042F4DCE2E70024F8E7A6
:1019800064440EAB1C44002304F8383C0023684632
:10199000FFF710FF0EB0BDE8F08100BF6766666616
:1019A0002DE9F04186B0804657EC106B234B93E84D
:1019B00003000390ADF810100024CDF812407523F9
:1019C00000930194ADF8084015461D49684603F0A0
:1019D000EBFE234601249D4204D004EB8402540014
:1019E0000133F8E7684603F00FFF164B1B882DF80C
:1019F0000030694603A803F0F7FE3046394603F08D
:101A0000BBFA054602F0B4FF02460B4630463946A3
:101A100002F060FE06460F46204602F0A9FF32465D
:101A20003B4603F00FF803F0A7FA03462A4603A942
:101A3000404603F0B9FE06B0BDE8F081085D001A2B
:101A4000145D001A185D001A2DE9F0432DED028B8C
:101A500089B0B0EE408AF0EE608A0D4616461F4609
:101A60009DF84C4028B18146052804D94FF005095E
:101A700001E04FF001090022002351EC180B03F0A4
:101A800053FA70B94FF000084A461299B0EE480A6E
:101A9000F0EE680A01A8FFF783FF2E2F12D0002373
:101AA00003E04FF00108EFE701331A2B0AD808AA28
:101AB0001A4412F81C2C2E2AF6D108AA1A4402F84D
:101AC0001C7CF1E7202C27D0B8F1000F22D02D2369
:101AD0008DF80430012304E008AA1A4402F81C4CD3
:101AE00001331A2B18D808AA1A4412F81C2C202AE1
:101AF000F2D02D2AF4D1EFE701331A2B0CD808AA23
:101B00001A4412F81C2C202AF6D108AA1A4402F80A
:101B10001C4CF1E70023F0E700233246294601A8D8
:101B2000FFF748FE09B0BDEC028BBDE8F083FFFF74
:101B300000B583B001F054FB00F0DAF829230093DC
:101B400028232722262164480068FEF7D9FB634B2F
:101B50001878FFF767F96248FFF756F8FEF7FCFFC1
:101B60004FF47A70002101F075FB5E4B5E4A1A60FB
:101B70004FF48060FFF732F9C82264210846FFF76E
:101B8000D1F94FF4FA70002101F064FB4FF4C872F0
:101B900064210846FFF78CF94FF4FA70002101F038
:101BA00059FB4FF6FF70FFF719F9C8234FF4C872BD
:101BB00019461846FFF7F0F94FF4FA70002101F0CA
:101BC00049FB4FF47840FFF709F94FF4EB714FF4FC
:101BD000BE70FFF757FA4FF4FA70002101F03AFB9C
:101BE0003F48FFF711F84FF4AF724FF49671612040
:101BF000FFF76EFA4FF4FA70002101F02BFBC823B7
:101C00004FF4FA7264211846FFF766FB4FF4FA703E
:101C1000002101F01FFB4FF4C8734FF4FA724FF428
:101C20009671C820FFF780FB4FF4FA70002101F095
:101C300011FB32224FF496710846FFF7C7FB4FF4B1
:101C4000FA70002101F006FB1F20FFF7C7F83222CF
:101C50004FF496710846FFF787FC4FF4FA700021A5
:101C600001F0F8FA5A234FF4C8724FF496711F48E6
:101C7000FFF7A0FD4FF4FA70002101F0EBFA00230A
:101C8000009302234FF4C8724FF42F710C20FFF71A
:101C9000FDFD4FF4FA70002101F0DCFA114B1868D9
:101CA00002F078FE41EC100B2023019304200090F9
:101CB0002E234FF4C87240F22621FFF7C5FE4FF4E1
:101CC000FA70002101F0C6FAFEF746FF4FF4FA70F1
:101CD000002101F0BFFA4BE7E40B0010E80B001005
:101CE00000000010100D00103333D33F1C5D001AAC
:101CF0002DE9F84F4FF46131032001F03DF84FF426
:101D00006131052001F038F8002001F0D9F82020D9
:101D1000584B1870DFF89CB10F238BF80030DFF8B8
:101D200098A11F238AF80030DFF890910E2389F8DC
:101D30000030DFF88C811E2388F800300D234E4AD6
:101D400013701D234D490B700C234D4C23700B2336
:101D50004C4D2B7021234C4E337010234B4F3B7056
:101D600011234B490B7012234A4C237014234A4D04
:101D70002B701323494E33700223494F3B70494F58
:101D800003233B70484E04233370484D05232B70CA
:101D9000474C06232370012101F008F901219BF92A
:101DA000000001F003F901219AF9000001F0FEF8AA
:101DB000012199F9000001F0F9F8012198F90000DA
:101DC00001F0F4F801212C4A92F9000001F0EEF83C
:101DD00001212A4B93F9000001F0E8F80121284B7A
:101DE00093F9000001F0E2F80121264B93F900007D
:101DF00001F0DCF80121244B93F9000001F0D6F842
:101E00000121224B93F9000001F0D0F80121204B71
:101E100093F9000001F0CAF801211E4B93F900006C
:101E200001F0C4F801211C4B93F9000001F0BEF849
:101E300001211A4B93F9000001F0B8F80121184B69
:101E400093F9000001F0B2F8012197F9000001F0C8
:101E5000ADF8012196F9000001F0A8F8012195F9EB
:101E6000000001F0A3F8012194F9000001F09EF8B0
:101E7000BDE8F88FF50C00102A0D0010640D00105D
:101E80005B0D0010310D0010E80C00101C0D00104F
:101E9000000D00101E0D0010510D0010500D00100F
:101EA000520D00105C0D0010E10C00105D0D0010D3
:101EB000650D0010580D00102B0D0010D80C0010EF
:101EC000490D00107047FFFF10B572B6194B1A4A42
:101ED0001A600433194A1A60002305E0184A4FF0CB
:101EE000FF3142F823100133072BF7D962B6154BA7
:101EF00007E003F10C049A6859681868FEF745F981
:101F00002346114A9342F4D306E01C46596854F81C
:101F1000080BFEF749F923460C4A9342F5D300F02B
:101F200001FF03F0D3F9FFF7CDFFFFF701FE30BF4C
:101F3000FDE700BF003105400010DF10FFF7DF01B3
:101F400080E200E01401001A5001001A7801001A22
:101F500070477047054B1B6823B1044B1868014458
:101F600019607047014B024A1A60F6E7AC0C00108A
:101F7000800D00100022052A19D870B40C4911F800
:101F8000125001EB42014C780A4B05F5006653F8FC
:101F900026100120A040014343F8261003EB45130F
:101FA000002119550132052AE8D970BC70477047E5
:101FB000305D001A00400F400023032B16D830B4C8
:101FC0000B4911F8132001EB43014D78094C02F540
:101FD000006254F822100120A84021EA000144F8D0
:101FE00022100133032BEBD930BC7047704700BF80
:101FF000285D001A00400F400023082B16D830B48B
:102000000B4911F8132001EB43014D78094C02F5FF
:10201000006254F822100120A84021EA000144F88F
:1020200022100133082BEBD930BC7047704700BF3A
:102030003C5D001A00400F4010B582B0084C694664
:10204000204600F0BDF9074A6946204600F0F4F941
:1020500000226946204600F008FA02B010BD00BF19
:1020600000300E40801A060010B50B4C204600F0E0
:102070003DFE636823F004036360236823F0FF03DD
:1020800043F0070323600549204600F010FE636813
:1020900043F00203636010BD00500C40A0860100B5
:1020A00008B5002000F0B6FD044B40F60802C3F866
:1020B000842C0349002000F0BFFD08BD00600840EB
:1020C00040420F0010B5074C204600F097F84FF43F
:1020D000E131204600F0DCF80323E3600123E365EF
:1020E00010BD00BF00100C4008B5FFF7EBFF09481A
:1020F00000F07EFDFFF780FFFFF79EFFFFF7B4FFC4
:10210000FFF7CEFFFFF736FFFFF756FF00F0DAF9D3
:1021100008BD00BF00400F4008B5FFF7D3FF08BD62
:1021200000231C2B12D810B4094A02EB830112F8C9
:1021300023404A78488802EB4412064941F82200BD
:1021400001331C2BF0D95DF8044B7047704700BF7A
:10215000585D001A0060084010B5174AD2F82031C7
:1021600023F4704343F41043C2F82031D2F82431F1
:1021700023F4704343F41043C2F8243101220F4981
:10218000062000F089FC00244CB10B4B5A6822F069
:102190000C025A605A6842F003025A6010BD0848A7
:1021A00000EB840101238A78497810F8240000F0BC
:1021B000B5FB0134E8E700BF0030044000CB280C39
:1021C000545D001A08B5FFF7ABFFFFF7C5FF08BD68
:1021D000094B984209D003F58053984207D0A3F5E4
:1021E0008023984205D000207047022070470320CA
:1021F00070470120704700BF00100C4030B583B01D
:102200000446FFF7E5FF01231A4619460E4D35F83F
:10221000100000F0C9FB0723A3600023E36563609F
:10222000E3602362E36463652365084B9C4206D048
:102230000323E3601023A362019B03B030BD00239E
:102240002361A3690193F3E7D45D001A00200840DD
:1022500038B505460C46FFF7BBFF0C4B33F81000B2
:1022600000F0F4FB2301B0FBF3F3D9B2EA6842F0CB
:102270008002EA602960C3F307226A60EA6822F0FC
:102280008002EA60B0FBF3F0000938BDCC5D001AB3
:102290002DE9F04F83B001908846FFF799FF324B4C
:1022A00033F8100000F0D2FB06464FF0FF37012450
:1022B0004FF0000BA246D9462AE042424B1C17E0E1
:1022C0000AB31746AB46A24699460135AC421ED921
:1022D00033093007A4FB000104FB0311621908FB5A
:1022E00002F2002302F070FE02460B460028E4DBF7
:1022F0009742EAD3002BE8D0190CE6D1022BDFD8A5
:10230000002DDDD0E1E71746AB46A24699460134E1
:102310001FB10F2C01D80025D8E7B9F1000F1ED04E
:10232000019A1146D36843F08003D3605FFA89F3C2
:102330001360C9F307235360D36823F08003D3608D
:102340004FEA0A13DBB20BF00F0213438B6233091F
:102350000AFB03F3DA4409FB0AF9B3FBF9F948462F
:1023600003B0BDE8F08F00BFCC5D001A034B98426C
:1023700001D0032070470420704700BF00400E408A
:1023800070B50D4614461E46FFF7F0FF00F05EFBE9
:1023900055B104FB06F404EB40006400B0FBF4F01C
:1023A000C0B20138C0B270BD04EB840304EB430437
:1023B000F1E7036823F0E06343EA016101607047DD
:1023C00038B505460C46FFF7D1FF01231A461946DA
:1023D00000F0EAFA0021E960084A22602171617187
:1023E0000B232846FFF7CCFF000240F400132079AE
:1023F000400400F460201843286038BD801A0600AD
:1024000008B54FF48072C26000220260FFF7AEFF91
:1024100000F002FB08BD012A06D0C36801228A40F1
:1024200023EA0203C360704710B4C4688A401443AF
:10243000C4605DF8044B704770B505460E460468ED
:1024400024F46F2424F470640A600B79C3F10B0345
:10245000DBB24979FFF794FF44EA002033795B044B
:1024600003F4602303432B6070BD08B50A710A684A
:10247000FFF7E2FF08BD012A0AD0026822F0E062FD
:102480000260036801228A4023EA02030360704766
:1024900010B404688A40144304605DF8044B70472C
:1024A00038B504460D460021FFF783FF25B92368A0
:1024B00023F48033236038BD236843F480332360E2
:1024C000F9E7FFFF08B5692000F0C0FA014B18607A
:1024D00008BD00BF6C0D0010F0B40B6813F0800F46
:1024E00002D023F040030B60074601253AE04B6918
:1024F00003FB02F3B3FBF5F31CE01C46B0EB040C4A
:1025000027D4674506D98D60771CCF600A618C613E
:10251000CB6167460132B2F5807F1DDC0C6814F098
:10252000400FE4D0731C02FA03FC4B6903FB0CF36D
:10253000B3FBF5F3DFF838C06345EBD9DFF834C0FF
:10254000634509D814F0800FD7D1741C23FA04F422
:10255000D4E7CCF1000CD4E70136032E01DC0122D4
:10256000D9E70135042D01DC0026F6E7F0BC704701
:10257000FF5E4C0900D01213F0B599B005460C4629
:102580005C22002101A802F0D5FE8023009363693C
:10259000059323798DF8043069462846FFF79CFFA0
:1025A000069BAB4227D0EB1A2ED41E46109B23F07D
:1025B000400310936369159323798DF8443010A973
:1025C0002846FFF789FF169BAB421FD0EB1A25D494
:1025D0001F462B4B9D4223D90E9BED1A33D4AE429E
:1025E0003BDCBE4231DC6D460FCD0FC495E80F00D9
:1025F00084E80F0006E06D460FCD0FC495E80F008C
:1026000084E80F0019B0F0BD5B42CEE710AD0FCDEE
:102610000FC495E80F0084E80F00F3E75B42D7E7AB
:102620004023089363690D9308A92846FFF754FFD8
:102630000E9BAB42D0D108AD0FCD0FC495E80F0073
:1026400084E80F00DEE76D42C9E710AD0FCD0FC47F
:1026500095E80F0084E80F00D4E7AF4207DB08AD30
:102660000FCD0FC495E80F0084E80F00CAE710AD46
:102670000FCD0FC495E80F0084E80F00C2E700BF3C
:1026800080778E0630B4054600231C2000E001331D
:102690001C2818D103EB430251000C4A0A44147958
:1026A000844210D003EB43014A0008498A5AAA42E7
:1026B000EDD803EB43025100044A0A445288AA426F
:1026C000E5D32046E4E730BC704700BFE85D001A60
:1026D00082B04FF47A7301930D4A936923F002019B
:1026E00092698A4201D00A4A916123F00303094AA0
:1026F0001168094A914201D943F00403044A9361E5
:10270000019B5A1E0192002BFAD102B0704700BF04
:1027100000000540505D001AFF2C31011230054BBE
:1027200053F8200010F0010F02D1C0F3046070478D
:10273000112070470000054000F11202034B53F8CE
:102740002220034B185C00EA92007047000005400D
:10275000E05D001A08B510280AD8DFE800F0440B45
:102760000D18210924272A2D09093034383C40004E
:1027700000203AE01E4838E01E4BD3F82C3103F01D
:102780000703042B01D01C482FE000202DE0194B3B
:10279000D3F82C3103F00703042B27D0164824E08C
:1027A000164B186821E0164B18681EE0154B186888
:1027B0001BE0144B586818E000F068F815E00021A1
:1027C00000F09AF811E0012100F096F80DE00221E6
:1027D00000F092F809E0032100F08EF805E00421F2
:1027E00000F08AF801E04FF4004008BD0648FCE71D
:1027F000001BB7000030044040787D01245D001AC2
:10280000505D001AB00C001080F0FA0238B5054691
:102810000C460879FFF79EFF6061194B2B44194A5B
:10282000934221D818B3802323600023A360E36080
:10283000B5FBF0F32361144A954203D903FB00F082
:10284000A84207D021462846FFF796FEA3688BB121
:10285000013BA360236983B1E2680AB1013AE260F7
:10286000013B2361002038BD4FF0FF30FBE74FF004
:10287000FF30F8E74FF0FF30F5E74FF0FF30F2E7B9
:10288000103A6BFF1005940BFF5E4C0930B583B016
:10289000174D6C6CC4F30360FFF75CFF154B1B68AE
:1028A00001932B6C13F0010F20D0C4F30743C4F342
:1028B0000132C4F30121C4F38015013301320DF15B
:1028C000080C614411F8041C14F0800F08D13DB9C4
:1028D0004900B3FBF1F3B0FBF2F000FB03F003E0BF
:1028E000B0FBF2F003FB00F003B030BD0020FBE7CB
:1028F00000000540DC5D001A38B50C460846FFF7BD
:102900000DFF05462046FFF717FF04462846FFF750
:1029100021FF0134B0FBF4F038BDFFFF30B400F10B
:102920001604A40004F1804404F5A02464681B2864
:1029300013D811291AD00E4D25400AB145F400656F
:102940000BB145F0010545EA01651630800000F144
:10295000804000F5A020456008E044F001041630F6
:10296000800000F1804000F5A020446030BC70473A
:10297000FEF7FFE01B280CD81630800000F18040E5
:1029800000F5A020406810F0010F04D1C0F30460EE
:102990007047112070471120704708B5FFF7EAFF14
:1029A000FFF7D8FE08BDFFFF71B901210AB141F060
:1029B0000401022B0AD0B0F5A17F0AD3A0F59170D3
:1029C000064B43F8301070470321EFE741F0200138
:1029D000F1E72030024B43F83010704700200540EB
:1029E00000100540B0F5A17F09D3094AA0F5917008
:1029F00052F8303043F0010342F830307047054A56
:102A0000203052F8303043F0010342F83030704744
:102A10000020054000100540B0F5A17F09D3094A08
:102A2000A0F5917052F8303023F0010342F83030B5
:102A30007047054A203052F8303023F0010342F845
:102A400030307047002005400010054010B5B0F54B
:102A5000A17F09D3A0F591730D4A52F8334014F0C9
:102A6000010F07D1002010BD00F12003094A52F8E0
:102A70003340F4E7FFF706FEFFF78FFF14F0E00F97
:102A800003D10123B0FBF3F0EDE70223FAE700BF27
:102A9000002005400010054070B58AB005460E467E
:102AA00014464CF250330993062818D00023012213
:102AB00029460420FFF732FF4A4A536C43F00103D2
:102AC00053648DF8085001A93046FFF79FFE464B2E
:102AD0009E4216D9019B13F0400F03D0FEE7FFF78B
:102AE000F7FDE3E713F0800F05D023F08003019397
:102AF0000025012607E0049B0133049301250026ED
:102B000001E000252E469DF80820019B43EA026360
:102B1000059A43EA0243039A43EA0233049A43EADA
:102B2000022343F400632F4A53642E4B1B6C13F0B3
:102B3000010FFAD00023012209210420FFF7EEFE45
:102B400006B34CF250330993099B5A1E0992002B8D
:102B5000FAD1019B43F0800301939DF8082043EADA
:102B60000263059A43EA0243039A43EA0233049A52
:102B700043EA022343F400631A4A5364002C2ED123
:102B80000AB070BD002DF9D04CF250330993099B67
:102B90005A1E0992002BFAD1049B5A1E04929DF8EA
:102BA0000810019B43EA0163059943EA0143039935
:102BB00043EA013343EA022343F40063094A5364BE
:102BC000DCE70A4800EB8401CB788A78497810F872
:102BD0002400FFF7A3FE0134112CF2D9D0E7002422
:102BE000FAE700BF0000054080778E06545E001AA9
:102BF0007047FFFF012909D1C0EBC0008200044BE0
:102C000013441A69137DDBB2042BFBD0704700BF5D
:102C1000FC0B001070B50546064EC400221A930046
:102C200033449888FFF7DEFE641BA300F3586C2240
:102C30009A6170BDFC0B00102DE9F0410C460B4E63
:102C4000C5002B1A4FEA830806EB08039888FFF7A4
:102C5000FDFEB0FBF4F056F8083042081A6156F851
:102C600008301A69801A5861BDE8F081FC0B001029
:102C7000034B984201D083207047A520704700BFC6
:102C800000500C40044B984202D040F202207047A2
:102C90004FF4F170704700BF00500C40036823F4FC
:102CA0007F43090289B2194301600261704770B520
:102CB00006460D46FFF7E6FFFFF7C8FE02224FF07B
:102CC000FF33002100E02146AB420BD94C1C02FB34
:102CD00004F3B0FBF3F39D42F6D2FF2CF3D902329A
:102CE0000021F1E73046FFF7D9FF70BD10B504466B
:102CF000FFF7BEFFFFF776FE2046FFF7C3FFFFF7A3
:102D000071FE636823F004036360236823F0FF030C
:102D100043F00703236002492046FFF7C8FF10BDB8
:102D2000A086010008B50B4A0B4B9A6003F50C73A3
:102D30001B6903F47F63202B04D0FFF743FAFFF7EE
:102D4000D3F908BD044AD2F8883043F47003C2F8BE
:102D50008830F2E70000001A00ED00E0044B186034
:102D6000044A136843F0010313600120704700BF59
:102D7000340C0010001000E02DE9F843804689462D
:102D8000194C45002A189300E618E7583846FFF713
:102D900035FA49463846FFF75BFA0723BB603B68C4
:102DA0000123FB6530797379B27942F018020F493B
:102DB00003EB401341F82320F079337A727A42F022
:102DC000D00203EB401341F82320B8F1010F01D0EA
:102DD000BDE8F883064AD36C43F03003D3641A226B
:102DE000C1F80823F4E700BF9C5E001A00600840A9
:102DF00000100840014BD3E900017047C00C0010DF
:102E000018B1044B07221A607047024B00221A6067
:102E1000704700BF10E000E038B550EA01042AD046
:102E200010F1FF3241F1FF33002B08BF322A27D2C5
:102E3000144BC3E90001144B1B68A3FB004503FBC3
:102E400001554FF47A7200232046294602F0BCF85F
:102E50000138B0F1807F09D20C4B58600C4AE02158
:102E600082F8231000229A6007221A600120FFF7DF
:102E7000C7FF012038BD0020FFF7C2FF0020F9E79F
:102E80000020F7E7380C00106C0D001010E000E097
:102E900000ED00E008B5074A13685168013341F1BD
:102EA000000113605160044B1B6813B1034A1068A2
:102EB000984708BDC00C0010C80C0010B80C0010DA
:102EC00030B583B018B101284AD003B030BD264BCD
:102ED0006D4693E8030085E80300244C294620460C
:102EE000FFF76EFA00212046FFF7DAFA204A29465A
:102EF0002046FFF7A1FA002201212046FFF7BBFA86
:102F0000002201212046FFF786FA002202212046F6
:102F1000FFF7B1FA002202212046FFF77CFA0022D7
:102F200003212046FFF7A7FA002203212046FFF7DE
:102F300072FA002204212046FFF79DFA00220421A4
:102F40002046FFF768FA0B4AD2F8883C43F010039A
:102F5000C2F8883C002205212046FFF75CFAB4E75E
:102F60000248FFF74DFAB0E7E45E001A00300E4069
:102F7000400D03000060084030B40B4D00EB8000B2
:102F80002C182856087094F90110117094F9022039
:102F90001A7094F90320029B1A7094F90420039B81
:102FA0001A7030BC704700BFEC5E001A10F1020FBF
:102FB00000F0C780B0F1FF3F00F0C58070B584B06D
:102FC0000C4600238DF80F308DF80E308DF80D3043
:102FD0008DF80C308DF80B300DF10B03019303AB22
:102FE00000930DF10D030DF10E020DF10F01FFF72E
:102FF000C3FF052C00F2A980DFE804F00981274512
:1030000063035348FFF7F4FD012004B070BD9DF841
:103010000F109DF80E309DF80D2042F0D00203EB0A
:1030200041134C4941F823209DF80C309DF90B20A9
:10303000012000FA02F1464C03F5006354F8232006
:1030400022EA010244F82320DFE79DF80F109DF8E3
:103050000E309DF80D2042F0C00203EB41133D49B4
:1030600041F823209DF80C309DF90B20012000FA37
:1030700002F1374C03F5006354F8232022EA0102E1
:1030800044F82320C1E79DF80F109DF80E309DF8FD
:103090000D2042F0D80203EB41132E4941F82320C2
:1030A0009DF80C309DF90B20012000FA02F1284C0C
:1030B00003F5006354F8232022EA010244F8232098
:1030C000A3E79DF80F109DF80E309DF80D2042F0FB
:1030D000C80203EB41131F4941F823209DF80C302F
:1030E0009DF90B20012000FA02F1194C03F5006351
:1030F00054F8232022EA010244F8232085E79DF8B2
:103100000F109DF80E309DF80D2042F0D00203EB19
:103110004113104941F823209DF80C409DF90B20E4
:10312000012000FA02F10A4B04F5006553F825600E
:10313000314343F82510D2B203EB441300219954D4
:1031400063E7002070470020704700205DE700BF64
:1031500000400F400060084010F1020F2DD0B0F188
:10316000FF3F2CD010B584B00C4600238DF80F30F3
:103170008DF80E308DF80D308DF80C308DF80B3049
:103180000DF10B03019303AB00930DF10D030DF152
:103190000E020DF10F01FFF7EFFE9DF80C309DF8C8
:1031A0000B20211C18BF01215B0103F1402303F513
:1031B00070239954012004B010BD002070470020F6
:1031C0007047FFFF08B5044B1B681B68DB68034AA8
:1031D0001068984708BD00BF700D0010CC0C00109F
:1031E00008B5FFF76FF91A4B1868FFF7B7FD012014
:1031F0000021FFF711FE05210020FFF7D7FE002177
:103200002420FFF7D3FE00212520FFF7CFFE002169
:103210002620FFF7CBFE00212720FFF7C7FE012164
:103220002820FFF7C3FE01212920FFF7BFFE01215F
:103230002A20FFF7BBFE01212B20FFF7B7FE01215B
:103240002C20FFF7B3FE01212D20FFF7AFFE08BDB4
:103250006C0D00102DE9F84380468946FFF7CAFD42
:1032600006460F46FFF7C6FD841B61EB0705064BBC
:10327000D3E900234046494601F0A6FE8D4208BF2F
:103280008442EFD3BDE8F883380C0010FFFFFFFF46
:1032900000B551EC100B2C4A21F00043934285B04D
:1032A00020DD2A4A934209DD10EE102A0B4601F078
:1032B00011FA41EC100B05B05DF804FB684600F014
:1032C000A7F800F00300012817D002282FD028B358
:1032D00001209DED021B9DED000B01F00DF851EC5E
:1032E000100BE6E79FED161B00F0AAFA51EC100B4D
:1032F00041EC100B05B05DF804FB9DED021B9DED4C
:10330000000B00F0F9FF53EC102B10EE100A03F144
:10331000004141EC100B05B05DF804FB9DED021B74
:103320009DED000B00F08CFA51EC100BC1E79DED08
:10333000021B9DED000B00F083FAE4E7AFF3008081
:103340000000000000000000FB21E93FFFFFEF7FCD
:1033500000B551EC100B2C4A21F00043934285B08C
:1033600027DD2A4A934209DD10EE102A0B4601F0B0
:10337000B1F941EC100B05B05DF804FB684600F0B4
:1033800047F800F0030001281FD0022830D028B3EE
:103390009DED021B9DED000B00F052FA53EC102B3B
:1033A00010EE100A03F1004141EC100B05B05DF87E
:1033B00004FB00209FED121B00F09EFF51EC100B50
:1033C00041EC100B05B05DF804FB9DED021B9DED7B
:1033D000000B00F035FA51EC100BCAE701209DED0F
:1033E000021B9DED000B00F087FF51EC100BC0E7B6
:1033F00001209DED021B9DED000B00F07DFFCDE750
:103400000000000000000000FB21E93FFFFFEF7F0C
:103410002DE9F04F53EC102B974923F000458D42D6
:103420008FB040F3878095498D421E46044629DCC3
:10343000002E194610EE100A85A3D3E9002340F3AD
:10344000AA8101F047F98E4B9D4206460F4600F0D7
:10345000878081A3D3E9002301F03CF902460B46A3
:10346000C4E900233946304601F034F97AA3D3E9A0
:10347000002301F02FF9C4E90201012738460FB0FB
:10348000BDE8F08F7F498D4240F38A807E498D42AE
:103490005BDC2F15A7F2164710EE100AA5EB0751BB
:1034A0009046894601F068FD01F062FA82468B463B
:1034B0004046494652465B46CDE908AB01F00AF961
:1034C0000022724B01F0BEFA8946804601F054FD9D
:1034D000054601F04DFA02460B4640464946CDE905
:1034E0000A2301F0F7F80022684B01F0ABFA002242
:1034F0000023CDE90C0101F00DFD002800F0498109
:10350000002D0CBF01230223614A019202213A4699
:10351000009108A8214600F0D7FA002E0746ADDA40
:103520006268E36802F1004203F1004347426260CF
:10353000E360A3E700240025002780ED000BC0E92D
:10354000024538460FB0BDE8F08F10EE100A19465C
:1035500001F0C0F80027C4E90201C4E900018DE7C9
:103560003FA3D3E9002301F0B5F83FA3D3E900233B
:1035700006460F4601F0AEF802460B46C4E90023AA
:103580003046394601F0A6F837A3D3E9002301F00D
:10359000A1F80127C4E9020138460FB0BDE8F08F59
:1035A00000F074FF59EC108B10EE100A30A3D3E931
:1035B0000023494601F046FA0022364B01F08CF810
:1035C00001F0DAFC074601F0D3F921A3D3E9002387
:1035D000CDE9040101F036FA02460B464046494661
:1035E00001F078F81CA3D3E9002382468B46DDE97D
:1035F000040101F027FA1F2FCDE902014EDC02463B
:103600000B465046594601F065F8234B7A1E80461A
:1036100053F82230AB42894648D042464B46C4E973
:1036200000895046594601F055F8DDE9022301F0C2
:1036300051F8002EC4E90201BFF620AF09F10045A0
:1036400001F100437F42C4E90085C4E9020315E7A4
:1036500000004054FB21F93F3163621A61B4D03D50
:103660000000601A61B4D03D7370032E8A19A33B29
:1036700083C8C96D305FE43FFB21E93F7BD902403D
:10368000FB21F93FFB213941FFFFEF7F0000704133
:103690005460001A0000E03FD45F001ADDE9022305
:1036A0005046594601F016F8804689462D15C9F353
:1036B0000A53EB1A102BB0DD57A3D3E90023DDE941
:1036C000040101F0BFF98046894602460B46504688
:1036D000594600F0FFFF02460B4650465946CDE9D9
:1036E000062300F0F7FF42464B4600F0F3FF4CA3E1
:1036F000D3E9002380468946DDE9040101F0A2F9FF
:1037000042464B4600F0E6FFDDE906ABCDE902019B
:103710000B4602465946504600F0DCFFC1F30A53FF
:10372000ED1A312D804689467FF777AF3FA3D3E965
:103730000023DDE9040101F085F98046894602464F
:103740000B46DDE9060100F0C5FF02460B46824646
:103750008B46DDE9060100F0BDFF42464B4600F016
:10376000B9FF34A3D3E9002380468946DDE904018B
:1037700001F068F942464B4600F0ACFF02460B46AA
:1037800050465946CDE9022300F0A4FF8046894601
:1037900043E70323B8E600F09FFF234B9D42064614
:1037A0000F4616D01AA3D3E9002300F095FF024676
:1037B0000B46C4E900233946304600F08BFF14A3C2
:1037C000D3E9002300F088FF4FF0FF37C4E902017E
:1037D00054E611A3D3E9002300F07EFF10A3D3E940
:1037E00000230F46064600F077FF02460B46C4E969
:1037F00000233946304600F06DFF09A3D3E90023CA
:1038000000F06AFF4FF0FF37C4E9020136E600BF5F
:103810003163621A61B4D03D0000601A61B4D03DDA
:103820007370032E8A19A33BFB21F93F0000002E81
:103830008A19A33BC14920259A837B39FFFFFFFFEB
:103840002DE9F04F57EC106B2DED028BB0EE418A55
:10385000F0EE618A27F00049B9F1795F83B072DA3E
:1038600010EE100A394601F087FB002800F0F680C0
:1038700032463B463046394601F0E4F87CA3D3E9B2
:10388000002304460D4601F0DDF87BA3D3E90023B5
:1038900000F022FF22462B4601F0D4F878A3D3E9AA
:1038A000002300F017FF22462B4601F0CBF876A349
:1038B000D3E9002300F010FF22462B4601F0C2F8A6
:1038C00073A3D3E9002300F005FF22462B4601F045
:1038D000B9F871A3D3E9002300F0FEFE22462B467F
:1038E00001F0B0F882468B460022714B20462946F3
:1038F00001F0A8F85246804689465B462046294694
:1039000001F0A0F853EC182B04460D46304639461A
:1039100001F098F802460B462046294600F0DAFEF0
:1039200002460B464046494600F0D4FE02460B468E
:103930000020604900F0CEFE41EC100B03B0BDEC5E
:10394000028BBDE8F08F10EE102A10EE100A3B46F5
:10395000394601F077F846A3D3E9002304460D4623
:1039600001F070F844A3D3E9002300F0B5FE22462D
:103970002B4601F067F842A3D3E9002300F0AAFE2A
:1039800022462B4601F05EF83FA3D3E9002300F066
:10399000A3FE22462B4601F055F83DA3D3E90023B0
:1039A00000F098FE22462B4601F04CF83AA3D3E9EA
:1039B000002300F091FE2B46224601F043F83E4BD7
:1039C000994582468B468FDD3C4B99453DDC002274
:1039D000A9F50013002037499046994600F07AFE79
:1039E000CDE900010022324B2046294601F02AF899
:1039F00042464B4600F06EFE5246804689465B4684
:103A00002046294601F01EF853EC182B04460D46BB
:103A10003046394601F016F802460B462046294644
:103A200000F058FE02460B464046494600F052FE62
:103A300002460B46DDE9000100F04CFE41EC100BA4
:103A400003B0BDEC028BBDE8F08F9FED157B4FF00E
:103A500000088DED007BDFF86890C3E79FED120B47
:103A600003B0BDEC028BBDE8F08F00BFAFF3008068
:103A7000D43888BEE9FAA8BDC4B1B4BD9EEE213EDB
:103A8000AD529C804F7E923E9015CB19A001FA3E1C
:103A90007751C1166CC1563F4C5555555555A53FEC
:103AA000000000000000E73F000000000000F03FC1
:103AB0000000E03F0000F03F3233D33F0000E93F19
:103AC0000000D23FFFFFFFFF2DE9F04FADF5197D5C
:103AD000B94CA29D089354F825400594013B12F17E
:103AE000140F04900B910393C0F2B282B349D31E1A
:103AF00081FB0301DB17C3EBA10307930133A3EBA6
:103B00008303DB00D3180693079A039BD61A059A02
:103B100012EB03081AD408F1010800240025B04470
:103B200020AFDDF88C9208E059F8260000F020FF65
:103B300001364645E7E8020108D0002EF4DA0136E6
:103B4000204629464645E7E80201F6D1059B002BB1
:103B5000089B4FEAC30301932ADB049A20A902EBD6
:103B6000030801EB030A059B72AA02EBC30B0DF5D8
:103B7000E079039B002B4FF000064FF0000711DBAC
:103B8000049C554675E90223F4E8020100F05AFF4F
:103B900002460B463046394600F09EFD4445064637
:103BA0000F46EFD1E9E80267D9450AF1080AE0D1EA
:103BB0000198049C0599019120448B0083460BA831
:103BC000A3F10802C3180A930CAB13440993019A9A
:103BD00098A901EBC203002A53E9284529DD0DF518
:103BE000E07A0AEBC2080DF130090022744B20463E
:103BF000294600F027FF01F0BFF900F0B9FE0022CE
:103C0000704B06460F4600F01DFF02460B4620464D
:103C1000294600F05FFD01F0AFF978E9022349F889
:103C2000040B3946304600F057FDD04504460D469A
:103C3000DBD1DDF8189045EC104B484600F0B4FCA1
:103C400055EC104B00224FF07F5310EE100A29461E
:103C500000F0F8FE41EC100B00F022FC002251ECC9
:103C6000100B594B00F0EEFE02460B46204629464B
:103C700000F030FD0D46044601F07EF9804600F06C
:103C800077FE0B4602462946204600F023FD4B46B0
:103C9000002B06460F4640F39980019A0CA9013A81
:103CA000C9F1180351F8225045FA03F101FA03F360
:103CB000EB1AC9F117050CA843FA05F5002D40F8D9
:103CC0002230884400F38C8000220023304639469D
:103CD00001F020F9002800F09282019B059A03F17F
:103CE000FF394A4510DC03F180430CAA013B0A98D6
:103CF00002EB8303002253F80419834242EA0102D3
:103D0000F9D1002A40F0DB80059B0CAA013B52F858
:103D10002330002B40F0CE80099A012352F8041979
:103D200001330029FAD001994A1CCB18029391461D
:103D3000079B089902EB030A019B0B441D4620AB2D
:103D40000AF1804A03EBC505A39B0AF1FF3A03EB96
:103D50008A0A70AB03EBC20301935AF8040F00F018
:103D600007FE0B4603990246A8460029E8E802230D
:103D70004FF000064FF0000711DB049C01E075E9ED
:103D80000223F4E8020100F05DFE02460B463046D5
:103D9000394600F0A1FC5C4506460F46EFD1019B79
:103DA000E3E802670193029B09F101099945454641
:103DB000D3DD01930BE700BFA061001AABAAAA2ACA
:103DC0000000703E000070410000204069D1019B5E
:103DD0000CAA013B52F82350ED15002D7FF774AF6C
:103DE000019B002B08F1010840F307820C9C002C7A
:103DF0003AD1019B012B09D00CA9012251F8044FA3
:103E0000531C9CBB1A46019B9342F7D1069B002B87
:103E10000EDD012B00F01181022B09D1019B5A1EEE
:103E20000CAB0CA953F82230C3F3150341F8223030
:103E3000022D7FF449AF32463B460020944900F002
:103E400049FC06460F46002C3FF43EAF06989FED16
:103E50008C0B00F0A9FB3046394653EC102B00F0D8
:103E600039FC06460F462FE7012300220CA9C4F1B6
:103E7000807441F822400199994210DD0CAA0CA8E7
:103E800052F8232000EB830300EB81006FF07F41A9
:103E900000E01A688A1A43F8042B8342F9D10124FE
:103EA000B4E700227B4B01F053F8002840F0D580A6
:103EB000054609E7019B5A1C9146029238E70CAB74
:103EC000069A53F82930CDF81C80183A04950692CA
:103ED00073B9019B03F18043023B0CA901EB8303FF
:103EE00053F8041909F1FF39183A0029F8D006925D
:103EF00006989FED630B00F057FBB9F1000F55ECEE
:103F0000104BC0F2DD814FEAC90370AA02EB03082F
:103F1000069309F101060CABDFF87CB14FF0000A03
:103F200008F1080703EB860656F8040D00F020FDA3
:103F300022462B4600F086FD5B4667E902015246A9
:103F40002046294600F07EFD0CAB9E4204460D46FD
:103F5000EAD1CDF80890DDF8149048ABB9F1000F24
:103F60000393C34601934FF0000A2BDBDFF82C814B
:103F70005D4645A3D3E9002300260027002403E083
:103F8000544510DCF8E80223F5E8020100F05AFD80
:103F900002460B463046394600F09EFB0134A145EF
:103FA00006460F46ECDA019B029AE3E80267924567
:103FB0000193ABF1080B0AF1010306D0B9F1000F30
:103FC0009A46D3DA00260027EDE7A29BDDF8089099
:103FD000032B2BD8DFE813F0F600E500E5006600C0
:103FE00048AB00240025039303992B462246D1E9D0
:103FF000000100F06FFB049B002B40F040810B9B05
:10400000B9F1000FC3E900450DDD4AAD01240134CB
:10401000F5E8022300F060FBA145F8DA049B13B138
:1040200001F1004319460B9BC3E90201079B03F012
:1040300007000DF5197DBDE8F08F019B5A1E0CABF2
:104040000CA953F82230C3F3160341F82230EFE6EF
:1040500000216FF01703079154E5019B002B08F135
:104060000108C8BF02253FF7C1AE32463B460020DB
:10407000074900F02FFB022506460F4624E600BF45
:10408000000000000000F03F00000040FB21F93F6D
:104090000000F03F0000E03F0000703E6861001A41
:1040A00048AB0393B9F1000F40F31D81039A4FEA27
:1040B000C9030193D318D3E900AB984678E90267A6
:1040C00052465B463046394600F006FB04460D4634
:1040D00002460B463046394600F0FCFA5B46524633
:1040E00000F0FAFA039B4345A246AB46C8E9020139
:1040F000C8E90045E2D1B9F1010F40F3F480019B1A
:10410000039A09F1005909F1FF3913444FEAC90133
:10411000D3E9006701F1080A019192440DF5947BFF
:104120007AE9028932463B464046494600F0D4FAD5
:1041300004460D4602460B464046494600F0CAFA80
:1041400032463B4600F0C8FAD34526462F46CAE918
:104150000201CAE90045E3D1019C039B1034002011
:1041600000211C4403F1100574E9022300F0B4FAA5
:10417000A542F9D1039C049ED4E90023D4E9024569
:10418000002E40F087800B9EC6E90023079BC6E9FE
:10419000040103F00700C6E902450DF5197DBDE8ED
:1041A000F08F069E039F0836002400253E4476E9E2
:1041B00002232046294600F08FFAB74204460D46F6
:1041C000F5D111E7069C039D0834002000212C4402
:1041D00074E9022300F080FAA542F9D1049B13B1DF
:1041E00001F1004319460B9BC3E90001079B03F053
:1041F00007000DF5197DBDE8F08F002406E6069B4B
:104200000495584247EC106BCDF81C8000F0CCF9B7
:1042100055EC104B0022354B10EE100A294600F0E9
:1042200097FE10B30022324B2046294600F00AFCCC
:1042300000F0A2FE064600F09BFB00222B4B00F094
:1042400001FC02460B462046294600F043FA00F0E6
:1042500093FE069B019A183302F1010906930CABF9
:1042600043F8220043F8296042E62046294600F040
:1042700083FE019B0CAA994642F8230038E62246A9
:104280000B9C05F10043B9F1000FC4E900233FF78F
:10429000BCAEC5E603F1004701F100430B99C1E94B
:1042A0000403079B2646944605F1004403F00700EB
:1042B000C1E900C7C1E902640DF5197DBDE8F08FC1
:1042C000A29B032B3FF6B2AE01A252F823F000BF2F
:1042D000E142001AE13F001AE13F001AA140001A32
:1042E000002000217AE70020002143E70000704110
:1042F0000000703EFFFFFFFF2DE9F04F55EC104B23
:104300002DED028BB0EE418AF0EE618A25F000437C
:10431000B3F1795F83B0824607DA10EE100A2946BE
:1043200000F02AFE002800F08E8022462B46204610
:10433000294600F087FB06460F4602460B462046FC
:10434000294600F07FFB47A3D3E900238046894636
:104350003046394600F076FB44A3D3E9002300F051
:10436000B9F932463B4600F06DFB42A3D3E9002386
:1043700000F0B2F932463B4600F064FB3FA3D3E9BC
:10438000002300F0A7F932463B4600F05BFB3DA35B
:10439000D3E9002300F0A0F9CDE90001BAF1000F44
:1043A00037D000222E4B51EC180B00F04BFBDDE90F
:1043B000002382468B464046494600F043FB0246B6
:1043C0000B465046594600F085F932463B4600F010
:1043D00039FB53EC182B00F07DF91FA3D3E9002320
:1043E00006460F464046494600F02CFB02460B4667
:1043F0003046394600F070F902460B462046294601
:1044000000F068F941EC100B03B0BDEC028BBDE885
:10441000F08F02460B463046394600F013FB0EA3E0
:10442000D3E9002300F056F942464B4600F00AFB60
:1044300022462B4600F050F941EC100B03B0BDECC6
:10444000028BBDE8F08F45EC104B03B0BDEC028B46
:10445000BDE8F08FAFF30080495555555555C53F20
:104460000000E03F7CD5CF5A3AD9E53DEB9C2B8A42
:10447000E6E55A3E7DFEB157E31DC73ED561C11941
:10448000A0012A3FA6F810111111813F51EC100B29
:1044900010EE102A21F0004343EC102B704700BFB0
:1044A00051EC100BF8B5C1F30A53A3F2FF35132DED
:1044B0000C4610EE106A30DC002D1EDB384F2F4109
:1044C00007EA010303432DD033A3D3E9002300F00F
:1044D00003F90022002300F045FD48B1002C04DA66
:1044E0004FF4801343FA05F52C4424EA0704002610
:1044F0002346324643EC102BF8BD27A3D3E9002313
:1045000000F0EAF80022002300F02CFD0028EFD094
:10451000002C29DB00263446EAE7332D05DDB5F50E
:10452000806F19D041EC100BF8BDA3F213434FF08C
:10453000FF37DF400742F5D017A3D3E9002300F08F
:10454000CBF80022002300F00DFD0028D0D0002C75
:1045500013DB26EA0706CBE710EE102A0B4600F025
:10456000BBF841EC100BF8BD24F000430D4A1E438C
:10457000002E18BF14460026BAE7142D08D00123D8
:10458000C5F1340503FA05F5AE1928BFE418E0E7D4
:104590000134DEE7AFF300809C7500883CE4377E91
:1045A000FFFF0F000000F0BF38B553EC102BC3F332
:1045B0000A511C46054681BB10EE101A23F0004438
:1045C000214329D0194600223D4B3E4C10EE100AE3
:1045D00000F038FAA54202460B4616DB0C46C1F342
:1045E0000A513639294440F2FE70814221DC00290B
:1045F00047DC11F1350F34DA4CF250318D4218DCC2
:10460000002B27A1D1E9000144DB25A3D3E9002336
:1046100000F018FA41EC100B38BD40F2FF708142F7
:10462000E0D110EE100A194600F056F841EC100BDC
:1046300038BD002B1CA1D1E9000107DB1AA3D3E987
:10464000002300F0FFF941EC100B38BD18A1D1E9AF
:10465000000115A3D3E9002300F0F4F941EC100B9D
:10466000F3E724F0FF4424F4E004363144EA015334
:10467000104619460022144B00F0E4F941EC100BEF
:1046800038BD24F0FF4424F4E00444EA015343EC31
:10469000102B38BD08A1D1E90001B6E7AFF30080C7
:1046A00059F3F8C21F6EA5019C7500883CE4377E63
:1046B0009C7500883CE437FE59F3F8C21F6EA58153
:1046C00000005043B03CFFFF0000903C81F00041EF
:1046D00002E000BF83F0004330B54FEA41044FEAE7
:1046E000430594EA050F08BF90EA020F1FBF54EA82
:1046F000000C55EA020C7FEA645C7FEA655C00F01E
:10470000E2804FEA5454D4EB5555B8BF6D420CDDEE
:104710002C4480EA020281EA030382EA000083EA71
:10472000010180EA020281EA0303362D88BF30BD11
:1047300011F0004F4FEA01314FF4801C4CEA113167
:1047400002D0404261EB410113F0004F4FEA0333C6
:104750004CEA133302D0524263EB430394EA050F51
:1047600000F0A780A4F10104D5F1200E0DDB02FAC0
:104770000EFC22FA05F2801841F1000103FA0EF254
:10478000801843FA05F359410EE0A5F120050EF11A
:10479000200E012A03FA0EFC28BF4CF0020C43FA4B
:1047A00005F3C01851EBE37101F0004507D54FF058
:1047B000000EDCF1000C7EEB00006EEB0101B1F5A8
:1047C000801F1BD3B1F5001F0CD349085FEA3000EE
:1047D0004FEA3C0C04F101044FEA445212F5800FF9
:1047E00080F09A80BCF1004F08BF5FEA500C50F196
:1047F000000041EB045141EA050130BD5FEA4C0C79
:10480000404141EB010111F4801FA4F10104E9D101
:1048100091F0000F04BF01460020B1FA81F308BFF8
:104820002033A3F10B03B3F120020CDA0C3208DDC4
:1048300002F1140CC2F10C0201FA0CF021FA02F19F
:104840000CE002F11402D8BFC2F1200C01FA02F10F
:1048500020FA0CFCDCBF41EA0C019040E41AA2BF34
:1048600001EB0451294330BD6FEA04041F3C1CDAFC
:104870000C340EDC04F11404C4F1200220FA04F01C
:1048800001FA02F340EA030021FA04F345EA0301C6
:1048900030BDC4F10C04C4F1200220FA02F001FA88
:1048A00004F340EA0300294630BD21FA04F029460A
:1048B00030BD94F0000F83F4801306BF81F48011A3
:1048C0000134013D4EE77FEA645C18BF7FEA655C16
:1048D00029D094EA050F08BF90EA020F05D054EAE8
:1048E000000C04BF1946104630BD91EA030F1EBFED
:1048F0000021002030BD5FEA545C05D140004941F1
:1049000028BF41F0004130BD14F580043CBF01F5E3
:10491000801130BD01F0004545F0FE4141F47001C9
:104920004FF0000030BD7FEA645C1ABF19461046A4
:104930007FEA655C1CBF0B46024650EA013406BFA5
:1049400052EA033591EA030F41F4002130BD00BF64
:1049500090F0000F04BF0021704730B54FF4806421
:1049600004F132044FF000054FF0000150E700BFA2
:1049700090F0000F04BF0021704730B54FF4806401
:1049800004F1320410F0004548BF40424FF00001EE
:104990003EE700BF42004FEAE2014FEA31014FEA31
:1049A00002701FBF12F07F4393F07F4F81F0605180
:1049B000704732F07F4208BF704793F07F4F04BFCB
:1049C00041F40021704730B54FF4607401F00045A8
:1049D00021F000411CE700BF50EA010208BF704708
:1049E00030B54FF000050AE050EA010208BF7047F9
:1049F00030B511F0004502D5404261EB41014FF462
:104A0000806404F132045FEA915C3FF4D8AE4FF069
:104A100003025FEADC0C18BF03325FEADC0C18BF4C
:104A2000033202EBDC02C2F1200300FA03FC20FA9D
:104A300002F001FA03FE40EA0E0021FA02F11444EA
:104A4000BDE600BF70B54FF0FF0C4CF4E06C1CEA03
:104A500011541DBF1CEA135594EA0C0F95EA0C0F74
:104A600000F0DEF82C4481EA030621EA4C5123EAE7
:104A70004C5350EA013518BF52EA033541F4801116
:104A800043F4801338D0A0FB02CE4FF00005E1FBC9
:104A900002E506F00042E0FB03E54FF00006E1FB13
:104AA00003569CF0000F18BF4EF0010EA4F1FF0456
:104AB000B6F5007F64F5407404D25FEA4E0E6D4196
:104AC00046EB060642EAC62141EA55514FEAC520A7
:104AD00040EA5E504FEACE2EB4F1FD0C88BFBCF523
:104AE000E06F1ED8BEF1004F08BF5FEA500E50F1D4
:104AF000000041EB045170BD06F0004646EA01019A
:104B000040EA020081EA0301B4EB5C04C2BFD4EBCB
:104B10000C0541EA045170BD41F480114FF0000EC4
:104B2000013C00F3AB8014F1360FDEBF002001F032
:104B3000004170BDC4F10004203C35DA0C341BDCAC
:104B400004F11404C4F1200500FA05F320FA04F07E
:104B500001FA05F240EA020001F0004221F00041B2
:104B600010EBD37021FA04F642EB06015EEA430E25
:104B700008BF20EAD37070BDC4F10C04C4F1200555
:104B800000FA04F320FA05F001FA04F240EA020008
:104B900001F0004110EBD37041F100015EEA430ED9
:104BA00008BF20EAD37070BDC4F1200500FA05F2F9
:104BB0004EEA020E20FA04F301FA05F243EA020378
:104BC00021FA04F001F0004121FA04F220EA020087
:104BD00000EBD3705EEA430E08BF20EAD37070BDCD
:104BE00094F0000F0FD101F00046400041EB0101AD
:104BF00011F4801F08BF013CF7D041EA060195F08F
:104C0000000F18BF704703F00046520043EB030348
:104C100013F4801F08BF013DF7D043EA0603704735
:104C200094EA0C0F0CEA135518BF95EA0C0F0CD040
:104C300050EA410618BF52EA4306D1D181EA030186
:104C400001F000414FF0000070BD50EA410606BF80
:104C50001046194652EA430619D094EA0C0F02D1C5
:104C600050EA013613D195EA0C0F05D152EA03360A
:104C70001CBF104619460AD181EA030101F0004128
:104C800041F0FE4141F470014FF0000070BD41F071
:104C9000FE4141F4780170BD70B54FF0FF0C4CF44B
:104CA000E06C1CEA11541DBF1CEA135594EA0C0F6A
:104CB00095EA0C0F00F0A7F8A4EB050481EA030EB7
:104CC00052EA03354FEA013100F088804FEA03339E
:104CD0004FF0805545EA131343EA12634FEA02226C
:104CE00045EA111545EA10654FEA00260EF000412D
:104CF0009D4208BF964244F1FD0404F5407402D27F
:104D00005B084FEA3202B61A65EB03055B084FEA0F
:104D100032024FF480104FF4002CB6EB020E75EB0C
:104D2000030E22BFB61A754640EA0C005B084FEA34
:104D30003202B6EB020E75EB030E22BFB61A7546B1
:104D400040EA5C005B084FEA3202B6EB020E75EBFC
:104D5000030E22BFB61A754640EA9C005B084FEA74
:104D60003202B6EB020E75EB030E22BFB61A754681
:104D700040EADC0055EA060E18D04FEA051545EA70
:104D800016754FEA06164FEAC30343EA52734FEA19
:104D9000C2025FEA1C1CC0D111F4801F0BD141EA92
:104DA00000014FF000004FF0004CB6E711F4801FF7
:104DB00004BF01430020B4F1FD0C88BFBCF5E06FD7
:104DC0003FF6AFAEB5EB030C04BFB6EB020C5FEAE7
:104DD000500C50F1000041EB045170BD0EF0004E3C
:104DE0004EEA113114EB5C04C2BFD4EB0C0541EA6E
:104DF000045170BD41F480114FF0000E013C90E66B
:104E000045EA060E8DE60CEA135594EA0C0F08BF2E
:104E100095EA0C0F3FF43BAF94EA0C0F0AD150EA2D
:104E200001347FF434AF95EA0C0F7FF425AF1046C0
:104E300019462CE795EA0C0F06D152EA03353FF4E8
:104E4000FDAE1046194622E750EA410618BF52EA65
:104E500043067FF4C5AE50EA41047FF40DAF52EA39
:104E600043057FF4EBAE12E74FF0FF3C06E000BFD6
:104E70004FF0010C02E000BF4FF0010C4DF804CDE3
:104E80004FEA410C7FEA6C5C4FEA430C18BF7FEAA3
:104E90006C5C1BD001B050EA410C0CBF52EA430CD1
:104EA00091EA030F02BF90EA020F0020704710F151
:104EB000000F91EA030F58BF994208BF90422CBFE0
:104EC000D8176FEAE37040F0010070474FEA410CD9
:104ED0007FEA6C5C02D150EA013C07D14FEA430CF7
:104EE0007FEA6C5CD6D152EA033CD3D05DF8040B68
:104EF000704700BF8446104662468C46194663469A
:104F000000E000BF01B5FFF7B7FF002848BF10F170
:104F1000000F01BD4DF808EDFFF7F4FF0CBF0120B5
:104F200000205DF808FB00BF4DF808EDFFF7EAFF31
:104F300034BF012000205DF808FB00BF4DF808EDEC
:104F4000FFF7E0FF94BF012000205DF808FB00BFE1
:104F50004DF808EDFFF7CEFF94BF012000205DF86B
:104F600008FB00BF4DF808EDFFF7C4FF34BF012078
:104F700000205DF808FB00BF4FEA410212F5001265
:104F800015D211D56FF47873B3EB625212D94FEA90
:104F9000C12343F0004343EA505311F0004F23FA7A
:104FA00002F018BF404270474FF00000704750EACF
:104FB000013005D111F0004008BF6FF0004070478C
:104FC0004FF00000704700BF53B94AB9002908BF2D
:104FD00000281CBF4FF0FF314FF0FF3000F074B9D4
:104FE000ADF1080C6DE904CE00F006F8DDF804E040
:104FF000DDE9022304B070472DE9F047089E04461E
:105000008846002B40F085808A42154648D9B2FA7E
:1050100082F24AB1C2F1200701FA02F320FA07F73F
:10502000954047EA030894404FEA154E230CB8FB1D
:10503000FEF71FFA85FC0EFB178843EA084307FBBF
:105040000CF1994209D9EB1807F1FF3080F0E380A9
:10505000994240F2E080023F2B445B1AA4B2B3FBBA
:10506000FEF00EFB103344EA034400FB0CFCA445A5
:1050700009D92C1900F1FF3380F0CB80A44540F210
:10508000C88002382C4440EA0740A4EB0C040027F7
:105090001EB1D4400023C6E900433946BDE8F0877D
:1050A000002A53D0B2FA82F2002A40F0B680491B9F
:1050B0004FEA154E1FFA85F80127B1FBFEFC230CC1
:1050C0000EFB1C1143EA014308FB0CF1994207D97E
:1050D000EB180CF1FF3002D2994200F2EC808446CA
:1050E000591AA3B2B1FBFEF00EFB101443EA0444BC
:1050F00008FB00F8A04507D92C1900F1FF3302D2B4
:10510000A04500F2DC801846A4EB080440EA0C40FD
:10511000BEE78B4208D9002E78D00027C6E90001EF
:1051200038463946BDE8F087B3FA83F77FB98B423A
:1051300002D3824200F2BD80841A61EB0303012096
:105140009846002EA9D0C6E90048A6E7FFDEC7F1C1
:105150002005BB4022FA05FC4CEA030C01FA07F4D7
:1051600020FA05F821FA05F34FEA1C4E48EA040438
:10517000B3FBFEF9210C0EFB19331FFA8CF841EA40
:10518000034309FB08FA9A4502FA07F200FA07F10D
:105190000BD91CEB030309F1FF3080F088809A459E
:1051A00040F28580A9F102096344A3EB0A03A4B28B
:1051B000B3FBFEF00EFB103344EA034400FB08F897
:1051C000A04508D91CEB040400F1FF336BD2A045C5
:1051D00069D90238644440EA0940A4EB0804A0FB02
:1051E00002894C45C6464B4654D351D0002E69D057
:1051F000B1EB0E0264EB030404FA05F522FA07F39F
:10520000FC401D43C6E90054002746E737463046B8
:1052100043E7184637E707461FE7C2F1200320FAA5
:1052200003F7954001FA02F021FA03F34FEA154E15
:105230003843010CB3FBFEF71FFA85F80EFB17335A
:1052400041EA034107FB08F38B4204FA02F407D951
:10525000691807F1FF3C28D28B4226D9023F294426
:10526000CB1A81B2B3FBFEF00EFB103341EA0341CF
:1052700000FB08F38B4207D9691800F1FF3C10D2FC
:105280008B420ED902382944C91A40EA074714E76D
:105290004145ABD2B8EB020E69EB0C020138134664
:1052A000A4E76046F0E7184695E76746D8E78146E9
:1052B0007BE7384645E7ACF1020C2B4410E7023897
:1052C0002C4421E73746E8E6704700BF70B50D4D26
:1052D0000D4C641BA4100026A64209D10B4D0C4CAA
:1052E000FCF737FE641BA4100026A64205D170BD52
:1052F00055F8043B98470136EEE755F8043B9847CC
:105300000136F2E74462001A4462001A4462001A4D
:105310004862001A704770470A44914200F1FF3317
:1053200000D1704710B511F8014B03F8014F9142BD
:10533000F9D110BD02440346934200D1704703F8EF
:10534000011BF9E738B50546002945D051F8043C62
:105350000C1F002BB8BFE41800F0CCFA1F4A1368EA
:10536000104633B9636014602846BDE8384000F049
:10537000C7BAA3420CD921686218934204BF1A68C5
:105380005B68636004BF521822600460ECE7134658
:105390005A680AB1A242FAD919685818A0420BD12A
:1053A00020680144581882421960DDD110685268A3
:1053B0005A6001441960D7E702D90C232B60D3E768
:1053C000206821188A4204BF11685268626004BFD5
:1053D000091821605C60C7E738BD00BFD00C001021
:1053E000F8B5CD1C25F0030508350C2D38BF0C256C
:1053F000002D064601DBA94203D90C2333600020AF
:10540000F8BD00F077FA21490A6814469CB9204F8C
:105410003B6823B921463046FCF79CFD386029469D
:105420003046FCF797FD431C23D10C2333603046F4
:1054300000F066FAE3E723685B1B17D40B2B03D954
:1054400023601C44256004E06368A2420CBF0B602B
:105450005360304600F054FA04F10B00231D20F095
:105460000700C21ACCD01B1AA350C9E722466468B1
:10547000CCE7C41C24F00304A042E3D0211A304638
:10548000FCF768FD0130DDD1CFE700BFD00C001084
:10549000D40C00102DE9F04791461F468A680B692D
:1054A000DDF820809342B8BF1346C9F8003091F868
:1054B000432006460C4612B10133C9F80030236878
:1054C000990642BFD9F800300233C9F80030256888
:1054D00015F0060507D104F1190AE368D9F8002090
:1054E0009B1AAB4228DC94F843302268003318BF83
:1054F000012392062DD404F1430239463046C047B9
:10550000013020D02368E568D9F8002003F00603B5
:10551000042B08BFAD1AA36822690CBF25EAE57504
:1055200000259342C4BF9B1AED184FF000091A34AE
:105530004D451AD1002008E0012352463946304635
:10554000C047013003D14FF0FF30BDE8F08701358F
:10555000C3E7E1185A1C302081F84300224494F834
:10556000451082F843100233C5E70123224639462D
:105570003046C0470130E6D009F10109D8E7FFFF06
:105580002DE9F04306460C4601F14300097E85B043
:105590006E29984617460C9B00F0BA8024D86329E0
:1055A00039D00AD8002900F0C380582900F0918032
:1055B00004F1420584F8421035E0642901D06929DC
:1055C000F6D125681A6815F0800F02F104012CD07D
:1055D00012681960002A03DA2D23524284F84330FE
:1055E000DFF8BCC10A233FE0732900F0A58008D88A
:1055F0006F2921D07029DBD1226842F0200222607D
:1056000003E0752918D07829D2D1782284F8452072
:10561000DFF890C161E01A68111D1960136884F801
:10562000423004F14205012393E01268196015F03D
:10563000400F18BF12B2CDE7D4F800C01A681CF0B2
:10564000800F02F104051D6001D0126803E01CF018
:10565000400FFAD01288DFF848C16F290CBF082329
:105660000A23002184F843106568A560002DA2BFBD
:10567000216821F0040121600AB9002D46D00546B9
:10568000B2FBF3F103FB112E93421CF80EE005F878
:1056900001ED39D9082B0BD12368DA0708D5236926
:1056A00062689A42DEBF302305F8013C05F1FF3500
:1056B000401B2061CDF800803B4603AA21463046BE
:1056C000FFF7E8FE013049D14FF0FF3005B0BDE8EB
:1056D000F083DFF8CCC084F845101D68216855F8C8
:1056E000042B1D600D060BD5CD0744BF41F02001F2
:1056F00021601AB9236823F0200323601023B0E748
:105700004B0648BF92B2EFE70A46B9E70546C1E744
:105710001A68D4F800C06169151D1D601CF0800F67
:10572000136801D0196003E01CF0400FFAD0198013
:10573000002323610546BDE71A68111D196015682D
:1057400062680021284600F06BF808B1401B6060D9
:1057500063682361002384F84330ABE723692A465A
:1057600039463046C0470130AED023689B0713D47A
:10577000E068039B9842B8BF1846A7E701234A4652
:1057800039463046C04701309ED00135E368039A60
:105790009B1AAB42F2DCEBE7002504F11909F5E7AF
:1057A0001062001A2162001A0EB400B59CB01DAB45
:1057B000029006906FF00041094807910491094951
:1057C00053F8042B05910068019302A900F020F919
:1057D000029B00221A701CB05DF804EB03B0704706
:1057E000400C00100802FFFF10B503461A4612F8DD
:1057F000014B3CB9013B11F8012B03F8012F002AA2
:10580000F9D110BD1346F1E7034613F8012B002A26
:10581000FBD1181A01387047FFFFFFFFFFFFFFFFA2
:1058200001F0FF01102A2BDB10F0070F08D010F851
:10583000013B013A8B422DD010F0070F42B3F6D155
:10584000F0B441EA012141EA014122F007047FF06E
:1058500000070023F0E80256083C85EA010586EAC5
:10586000010685FA47F5A3FA87F586FA47F6A5FA01
:1058700087F68EB9EED1F0BC01F0FF0102F007020D
:1058800032B110F8013B013A83EA010313B1F8D1B8
:105890000020704701387047002D06BF3546033899
:1058A000073815F0010F07D1013015F4807F02BFD2
:1058B000013015F4C03F0130F0BC0138704700BF23
:1058C000884210B501EB020302D983421C4607D877
:1058D000421E994208D011F8014B02F8014FF8E737
:1058E00083189A1A9A4200D110BD14F8011D03F8CA
:1058F000011DF7E70148FFF70DBD00BF780D00104F
:105900000148FFF708BD00BF780D0010F8B5074645
:1059100014460E4621B91146BDE8F840FFF760BDB8
:1059200022B9FFF70FFD25462846F8BD00F068F9BB
:10593000A0420FD221463846FFF752FD0546002807
:10594000F2D031462246FFF7E7FC31463846FFF7F2
:10595000F9FCE9E73546E7E72DE9F0478E689E4216
:1059600082460C469146984638D8B1F80CC01CF4D3
:10597000906F31D062692568096902EB42026F1AA3
:1059800002EBD272013355103B449D4238BF1D4695
:105990001CF4806F30D02946FFF722FD064650B92F
:1059A0000C23CAF80030A38943F04003A3814FF0D1
:1059B000FF30BDE8F0873A462169FFF7ADFCA389C7
:1059C00023F4906343F08003A381266165613E4424
:1059D000ED1B2660A5604646464500D94646324640
:1059E00049462068FFF76CFFA3689B1BA3602368F0
:1059F0001E4426600020DCE72A46FFF787FF0646A4
:105A00000028E2D121695046FFF79CFCC8E7FFFF60
:105A10002DE9F04F1E468B891B069DB007460D46AB
:105A200014460ED50B6963B94021FFF7D9FC2860F5
:105A3000286120B90C233B604FF0FF30C9E04023C0
:105A40006B610023099320238DF82930DFF89C91A6
:105A5000039630238DF82A304FF0010A23461E4664
:105A600013F8012B0AB1252AF9D1B6EB040B0BD0A0
:105A70005B46224629463846FFF76EFF013000F0AC
:105A8000A380099B5B4409933378002B00F09C8032
:105A900000234FF0FF32CDE905230136049307932D
:105AA0008DF853301A933446052214F8011B4F48E1
:105AB000FFF7B6FE049BC0B9D90644BF20228DF87B
:105AC00053201A0744BF2B228DF8532032782A2AFC
:105AD00013D0079A344600200A26214611F8013BCC
